{
	"LibraryBase.sol": {
		"LibraryBase": {
			"abi": [
				{
					"inputs": [],
					"stateMutability": "nonpayable",
					"type": "constructor"
				},
				{
					"inputs": [
						{
							"internalType": "string",
							"name": "_title",
							"type": "string"
						},
						{
							"internalType": "uint256",
							"name": "_callNumber",
							"type": "uint256"
						},
						{
							"internalType": "bool",
							"name": "_bookState",
							"type": "bool"
						}
					],
					"name": "addNewBook",
					"outputs": [],
					"stateMutability": "nonpayable",
					"type": "function"
				},
				{
					"inputs": [
						{
							"internalType": "uint256",
							"name": "",
							"type": "uint256"
						}
					],
					"name": "book",
					"outputs": [
						{
							"internalType": "uint256",
							"name": "callNumber",
							"type": "uint256"
						},
						{
							"internalType": "string",
							"name": "title",
							"type": "string"
						},
						{
							"internalType": "bool",
							"name": "bookState",
							"type": "bool"
						}
					],
					"stateMutability": "view",
					"type": "function"
				},
				{
					"inputs": [
						{
							"internalType": "string",
							"name": "_title",
							"type": "string"
						},
						{
							"internalType": "bool",
							"name": "_bookState",
							"type": "bool"
						}
					],
					"name": "borrowBookByTitle",
					"outputs": [
						{
							"internalType": "bool",
							"name": "isborrowed",
							"type": "bool"
						}
					],
					"stateMutability": "nonpayable",
					"type": "function"
				},
				{
					"inputs": [],
					"name": "owner",
					"outputs": [
						{
							"internalType": "address",
							"name": "",
							"type": "address"
						}
					],
					"stateMutability": "view",
					"type": "function"
				},
				{
					"inputs": [
						{
							"internalType": "string",
							"name": "",
							"type": "string"
						}
					],
					"name": "titleToBookState",
					"outputs": [
						{
							"internalType": "bool",
							"name": "",
							"type": "bool"
						}
					],
					"stateMutability": "view",
					"type": "function"
				},
				{
					"inputs": [
						{
							"internalType": "string",
							"name": "",
							"type": "string"
						}
					],
					"name": "titleToCallNumber",
					"outputs": [
						{
							"internalType": "uint256",
							"name": "",
							"type": "uint256"
						}
					],
					"stateMutability": "view",
					"type": "function"
				}
			],
			"devdoc": {
				"kind": "dev",
				"methods": {},
				"version": 1
			},
			"evm": {
				"assembly": "    /* \"LibraryBase.sol\":62:1607  contract LibraryBase {... */\n  mstore(0x40, 0x80)\n    /* \"LibraryBase.sol\":130:181  constructor() {... */\n  callvalue\n  dup1\n  iszero\n  tag_1\n  jumpi\n  0x00\n  dup1\n  revert\ntag_1:\n  pop\n    /* \"LibraryBase.sol\":163:173  msg.sender */\n  caller\n    /* \"LibraryBase.sol\":155:160  owner */\n  0x00\n  dup1\n    /* \"LibraryBase.sol\":155:173  owner = msg.sender */\n  0x0100\n  exp\n  dup2\n  sload\n  dup2\n  0xffffffffffffffffffffffffffffffffffffffff\n  mul\n  not\n  and\n  swap1\n  dup4\n  0xffffffffffffffffffffffffffffffffffffffff\n  and\n  mul\n  or\n  swap1\n  sstore\n  pop\n    /* \"LibraryBase.sol\":62:1607  contract LibraryBase {... */\n  dataSize(sub_0)\n  dup1\n  dataOffset(sub_0)\n  0x00\n  codecopy\n  0x00\n  return\nstop\n\nsub_0: assembly {\n        /* \"LibraryBase.sol\":62:1607  contract LibraryBase {... */\n      mstore(0x40, 0x80)\n      callvalue\n      dup1\n      iszero\n      tag_1\n      jumpi\n      0x00\n      dup1\n      revert\n    tag_1:\n      pop\n      jumpi(tag_2, lt(calldatasize, 0x04))\n      shr(0xe0, calldataload(0x00))\n      dup1\n      0x1116fd04\n      eq\n      tag_3\n      jumpi\n      dup1\n      0x4aa875cd\n      eq\n      tag_4\n      jumpi\n      dup1\n      0x4e9e5624\n      eq\n      tag_5\n      jumpi\n      dup1\n      0x72c318aa\n      eq\n      tag_6\n      jumpi\n      dup1\n      0x8da5cb5b\n      eq\n      tag_7\n      jumpi\n      dup1\n      0x9993fb75\n      eq\n      tag_8\n      jumpi\n    tag_2:\n      0x00\n      dup1\n      revert\n        /* \"LibraryBase.sol\":608:626  Book[] public book */\n    tag_3:\n      tag_9\n      0x04\n      dup1\n      calldatasize\n      sub\n      dup2\n      add\n      swap1\n      tag_10\n      swap2\n      swap1\n      tag_11\n      jump\t// in\n    tag_10:\n      tag_12\n      jump\t// in\n    tag_9:\n      mload(0x40)\n      tag_13\n      swap4\n      swap3\n      swap2\n      swap1\n      tag_14\n      jump\t// in\n    tag_13:\n      mload(0x40)\n      dup1\n      swap2\n      sub\n      swap1\n      return\n        /* \"LibraryBase.sol\":494:546  mapping (string => uint256) public titleToCallNumber */\n    tag_4:\n      tag_15\n      0x04\n      dup1\n      calldatasize\n      sub\n      dup2\n      add\n      swap1\n      tag_16\n      swap2\n      swap1\n      tag_17\n      jump\t// in\n    tag_16:\n      tag_18\n      jump\t// in\n    tag_15:\n      mload(0x40)\n      tag_19\n      swap2\n      swap1\n      tag_20\n      jump\t// in\n    tag_19:\n      mload(0x40)\n      dup1\n      swap2\n      sub\n      swap1\n      return\n        /* \"LibraryBase.sol\":635:905  function addNewBook (string memory _title, uint256 _callNumber, bool _bookState) public {... */\n    tag_5:\n      tag_21\n      0x04\n      dup1\n      calldatasize\n      sub\n      dup2\n      add\n      swap1\n      tag_22\n      swap2\n      swap1\n      tag_23\n      jump\t// in\n    tag_22:\n      tag_24\n      jump\t// in\n    tag_21:\n      stop\n        /* \"LibraryBase.sol\":1086:1476  function borrowBookByTitle (string memory _title, bool _bookState) public returns (bool isborrowed){... */\n    tag_6:\n      tag_25\n      0x04\n      dup1\n      calldatasize\n      sub\n      dup2\n      add\n      swap1\n      tag_26\n      swap2\n      swap1\n      tag_27\n      jump\t// in\n    tag_26:\n      tag_28\n      jump\t// in\n    tag_25:\n      mload(0x40)\n      tag_29\n      swap2\n      swap1\n      tag_30\n      jump\t// in\n    tag_29:\n      mload(0x40)\n      dup1\n      swap2\n      sub\n      swap1\n      return\n        /* \"LibraryBase.sol\":101:121  address public owner */\n    tag_7:\n      tag_31\n      tag_32\n      jump\t// in\n    tag_31:\n      mload(0x40)\n      tag_33\n      swap2\n      swap1\n      tag_34\n      jump\t// in\n    tag_33:\n      mload(0x40)\n      dup1\n      swap2\n      sub\n      swap1\n      return\n        /* \"LibraryBase.sol\":553:601  mapping (string => bool) public titleToBookState */\n    tag_8:\n      tag_35\n      0x04\n      dup1\n      calldatasize\n      sub\n      dup2\n      add\n      swap1\n      tag_36\n      swap2\n      swap1\n      tag_17\n      jump\t// in\n    tag_36:\n      tag_37\n      jump\t// in\n    tag_35:\n      mload(0x40)\n      tag_38\n      swap2\n      swap1\n      tag_30\n      jump\t// in\n    tag_38:\n      mload(0x40)\n      dup1\n      swap2\n      sub\n      swap1\n      return\n        /* \"LibraryBase.sol\":608:626  Book[] public book */\n    tag_12:\n      0x07\n      dup2\n      dup2\n      sload\n      dup2\n      lt\n      tag_39\n      jumpi\n      0x00\n      dup1\n      revert\n    tag_39:\n      swap1\n      0x00\n      mstore\n      keccak256(0x00, 0x20)\n      swap1\n      0x03\n      mul\n      add\n      0x00\n      swap2\n      pop\n      swap1\n      pop\n      dup1\n      0x00\n      add\n      sload\n      swap1\n      dup1\n      0x01\n      add\n      dup1\n      sload\n      tag_41\n      swap1\n      tag_42\n      jump\t// in\n    tag_41:\n      dup1\n      0x1f\n      add\n      0x20\n      dup1\n      swap2\n      div\n      mul\n      0x20\n      add\n      mload(0x40)\n      swap1\n      dup2\n      add\n      0x40\n      mstore\n      dup1\n      swap3\n      swap2\n      swap1\n      dup2\n      dup2\n      mstore\n      0x20\n      add\n      dup3\n      dup1\n      sload\n      tag_43\n      swap1\n      tag_42\n      jump\t// in\n    tag_43:\n      dup1\n      iszero\n      tag_44\n      jumpi\n      dup1\n      0x1f\n      lt\n      tag_45\n      jumpi\n      0x0100\n      dup1\n      dup4\n      sload\n      div\n      mul\n      dup4\n      mstore\n      swap2\n      0x20\n      add\n      swap2\n      jump(tag_44)\n    tag_45:\n      dup3\n      add\n      swap2\n      swap1\n      0x00\n      mstore\n      keccak256(0x00, 0x20)\n      swap1\n    tag_46:\n      dup2\n      sload\n      dup2\n      mstore\n      swap1\n      0x01\n      add\n      swap1\n      0x20\n      add\n      dup1\n      dup4\n      gt\n      tag_46\n      jumpi\n      dup3\n      swap1\n      sub\n      0x1f\n      and\n      dup3\n      add\n      swap2\n    tag_44:\n      pop\n      pop\n      pop\n      pop\n      pop\n      swap1\n      dup1\n      0x02\n      add\n      0x00\n      swap1\n      sload\n      swap1\n      0x0100\n      exp\n      swap1\n      div\n      0xff\n      and\n      swap1\n      pop\n      dup4\n      jump\t// out\n        /* \"LibraryBase.sol\":494:546  mapping (string => uint256) public titleToCallNumber */\n    tag_18:\n      0x05\n      dup2\n      dup1\n      mload\n      0x20\n      dup2\n      add\n      dup3\n      add\n      dup1\n      mload\n      dup5\n      dup3\n      mstore\n      0x20\n      dup4\n      add\n      0x20\n      dup6\n      add\n      keccak256\n      dup2\n      dup4\n      mstore\n      dup1\n      swap6\n      pop\n      pop\n      pop\n      pop\n      pop\n      pop\n      0x00\n      swap2\n      pop\n      swap1\n      pop\n      sload\n      dup2\n      jump\t// out\n        /* \"LibraryBase.sol\":635:905  function addNewBook (string memory _title, uint256 _callNumber, bool _bookState) public {... */\n    tag_24:\n        /* \"LibraryBase.sol\":734:738  book */\n      0x07\n        /* \"LibraryBase.sol\":744:781  Book(_callNumber, _title, _bookState) */\n      mload(0x40)\n      dup1\n      0x60\n      add\n      0x40\n      mstore\n      dup1\n        /* \"LibraryBase.sol\":749:760  _callNumber */\n      dup5\n        /* \"LibraryBase.sol\":744:781  Book(_callNumber, _title, _bookState) */\n      dup2\n      mstore\n      0x20\n      add\n        /* \"LibraryBase.sol\":762:768  _title */\n      dup6\n        /* \"LibraryBase.sol\":744:781  Book(_callNumber, _title, _bookState) */\n      dup2\n      mstore\n      0x20\n      add\n        /* \"LibraryBase.sol\":770:780  _bookState */\n      dup4\n        /* \"LibraryBase.sol\":744:781  Book(_callNumber, _title, _bookState) */\n      iszero\n      iszero\n      dup2\n      mstore\n      pop\n        /* \"LibraryBase.sol\":734:782  book.push(Book(_callNumber, _title, _bookState)) */\n      swap1\n      dup1\n      0x01\n      dup2\n      sload\n      add\n      dup1\n      dup3\n      sstore\n      dup1\n      swap2\n      pop\n      pop\n      0x01\n      swap1\n      sub\n      swap1\n      0x00\n      mstore\n      keccak256(0x00, 0x20)\n      swap1\n      0x03\n      mul\n      add\n      0x00\n      swap1\n      swap2\n      swap1\n      swap2\n      swap1\n      swap2\n      pop\n      0x00\n      dup3\n      add\n      mload\n      dup2\n      0x00\n      add\n      sstore\n      0x20\n      dup3\n      add\n      mload\n      dup2\n      0x01\n      add\n      swap1\n      dup2\n      tag_49\n      swap2\n      swap1\n      tag_50\n      jump\t// in\n    tag_49:\n      pop\n      0x40\n      dup3\n      add\n      mload\n      dup2\n      0x02\n      add\n      exp(0x0100, 0x00)\n      dup2\n      sload\n      dup2\n      0xff\n      mul\n      not\n      and\n      swap1\n      dup4\n      iszero\n      iszero\n      mul\n      or\n      swap1\n      sstore\n      pop\n      pop\n      pop\n        /* \"LibraryBase.sol\":857:868  _callNumber */\n      dup2\n        /* \"LibraryBase.sol\":829:846  titleToCallNumber */\n      0x05\n        /* \"LibraryBase.sol\":847:853  _title */\n      dup5\n        /* \"LibraryBase.sol\":829:854  titleToCallNumber[_title] */\n      mload(0x40)\n      tag_51\n      swap2\n      swap1\n      tag_52\n      jump\t// in\n    tag_51:\n      swap1\n      dup2\n      mstore\n      0x20\n      add\n      mload(0x40)\n      dup1\n      swap2\n      sub\n      swap1\n      keccak256\n        /* \"LibraryBase.sol\":829:868  titleToCallNumber[_title] = _callNumber */\n      dup2\n      swap1\n      sstore\n      pop\n        /* \"LibraryBase.sol\":892:897  false */\n      0x00\n        /* \"LibraryBase.sol\":879:897  _bookState = false */\n      swap1\n      pop\n        /* \"LibraryBase.sol\":635:905  function addNewBook (string memory _title, uint256 _callNumber, bool _bookState) public {... */\n      pop\n      pop\n      pop\n      jump\t// out\n        /* \"LibraryBase.sol\":1086:1476  function borrowBookByTitle (string memory _title, bool _bookState) public returns (bool isborrowed){... */\n    tag_28:\n        /* \"LibraryBase.sol\":1169:1184  bool isborrowed */\n      0x00\n        /* \"LibraryBase.sol\":1223:1233  _bookState */\n      dup2\n        /* \"LibraryBase.sol\":1196:1212  titleToBookState */\n      0x06\n        /* \"LibraryBase.sol\":1213:1219  _title */\n      dup5\n        /* \"LibraryBase.sol\":1196:1220  titleToBookState[_title] */\n      mload(0x40)\n      tag_54\n      swap2\n      swap1\n      tag_52\n      jump\t// in\n    tag_54:\n      swap1\n      dup2\n      mstore\n      0x20\n      add\n      mload(0x40)\n      dup1\n      swap2\n      sub\n      swap1\n      keccak256\n      0x00\n        /* \"LibraryBase.sol\":1196:1233  titleToBookState[_title] = _bookState */\n      0x0100\n      exp\n      dup2\n      sload\n      dup2\n      0xff\n      mul\n      not\n      and\n      swap1\n      dup4\n      iszero\n      iszero\n      mul\n      or\n      swap1\n      sstore\n      pop\n        /* \"LibraryBase.sol\":1252:1253  0 */\n      0x00\n        /* \"LibraryBase.sol\":1249:1250  i */\n      0x04\n        /* \"LibraryBase.sol\":1249:1253  i= 0 */\n      dup2\n      swap1\n      sstore\n      pop\n        /* \"LibraryBase.sol\":1244:1469  for (i= 0; i < book.length; i++){... */\n    tag_55:\n        /* \"LibraryBase.sol\":1259:1263  book */\n      0x07\n        /* \"LibraryBase.sol\":1259:1270  book.length */\n      dup1\n      sload\n      swap1\n      pop\n        /* \"LibraryBase.sol\":1255:1256  i */\n      sload(0x04)\n        /* \"LibraryBase.sol\":1255:1270  i < book.length */\n      lt\n        /* \"LibraryBase.sol\":1244:1469  for (i= 0; i < book.length; i++){... */\n      iszero\n      tag_56\n      jumpi\n        /* \"LibraryBase.sol\":1361:1367  _title */\n      dup3\n        /* \"LibraryBase.sol\":1344:1368  abi.encodePacked(_title) */\n      add(0x20, mload(0x40))\n      tag_58\n      swap2\n      swap1\n      tag_52\n      jump\t// in\n    tag_58:\n      mload(0x40)\n      0x20\n      dup2\n      dup4\n      sub\n      sub\n      dup2\n      mstore\n      swap1\n      0x40\n      mstore\n        /* \"LibraryBase.sol\":1334:1369  keccak256(abi.encodePacked(_title)) */\n      dup1\n      mload\n      swap1\n      0x20\n      add\n      keccak256\n        /* \"LibraryBase.sol\":1317:1321  book */\n      0x07\n        /* \"LibraryBase.sol\":1322:1323  i */\n      sload(0x04)\n        /* \"LibraryBase.sol\":1317:1324  book[i] */\n      dup2\n      sload\n      dup2\n      lt\n      tag_59\n      jumpi\n      tag_60\n      tag_61\n      jump\t// in\n    tag_60:\n    tag_59:\n      swap1\n      0x00\n      mstore\n      keccak256(0x00, 0x20)\n      swap1\n      0x03\n      mul\n      add\n        /* \"LibraryBase.sol\":1317:1330  book[i].title */\n      0x01\n      add\n        /* \"LibraryBase.sol\":1300:1331  abi.encodePacked(book[i].title) */\n      add(0x20, mload(0x40))\n      tag_63\n      swap2\n      swap1\n      tag_64\n      jump\t// in\n    tag_63:\n      mload(0x40)\n      0x20\n      dup2\n      dup4\n      sub\n      sub\n      dup2\n      mstore\n      swap1\n      0x40\n      mstore\n        /* \"LibraryBase.sol\":1290:1332  keccak256(abi.encodePacked(book[i].title)) */\n      dup1\n      mload\n      swap1\n      0x20\n      add\n      keccak256\n        /* \"LibraryBase.sol\":1290:1369  keccak256(abi.encodePacked(book[i].title))==keccak256(abi.encodePacked(_title)) */\n      sub\n        /* \"LibraryBase.sol\":1287:1459  if(keccak256(abi.encodePacked(book[i].title))==keccak256(abi.encodePacked(_title))) {... */\n      tag_65\n      jumpi\n        /* \"LibraryBase.sol\":1402:1412  _bookState */\n      dup2\n        /* \"LibraryBase.sol\":1382:1386  book */\n      0x07\n        /* \"LibraryBase.sol\":1387:1388  i */\n      sload(0x04)\n        /* \"LibraryBase.sol\":1382:1389  book[i] */\n      dup2\n      sload\n      dup2\n      lt\n      tag_66\n      jumpi\n      tag_67\n      tag_61\n      jump\t// in\n    tag_67:\n    tag_66:\n      swap1\n      0x00\n      mstore\n      keccak256(0x00, 0x20)\n      swap1\n      0x03\n      mul\n      add\n        /* \"LibraryBase.sol\":1382:1399  book[i].bookState */\n      0x02\n      add\n      0x00\n        /* \"LibraryBase.sol\":1382:1412  book[i].bookState = _bookState */\n      0x0100\n      exp\n      dup2\n      sload\n      dup2\n      0xff\n      mul\n      not\n      and\n      swap1\n      dup4\n      iszero\n      iszero\n      mul\n      or\n      swap1\n      sstore\n      pop\n        /* \"LibraryBase.sol\":1430:1434  book */\n      0x07\n        /* \"LibraryBase.sol\":1435:1436  i */\n      sload(0x04)\n        /* \"LibraryBase.sol\":1430:1437  book[i] */\n      dup2\n      sload\n      dup2\n      lt\n      tag_69\n      jumpi\n      tag_70\n      tag_61\n      jump\t// in\n    tag_70:\n    tag_69:\n      swap1\n      0x00\n      mstore\n      keccak256(0x00, 0x20)\n      swap1\n      0x03\n      mul\n      add\n        /* \"LibraryBase.sol\":1430:1447  book[i].bookState */\n      0x02\n      add\n      0x00\n      swap1\n      sload\n      swap1\n      0x0100\n      exp\n      swap1\n      div\n      0xff\n      and\n        /* \"LibraryBase.sol\":1423:1447  return book[i].bookState */\n      swap1\n      pop\n      jump(tag_53)\n        /* \"LibraryBase.sol\":1287:1459  if(keccak256(abi.encodePacked(book[i].title))==keccak256(abi.encodePacked(_title))) {... */\n    tag_65:\n        /* \"LibraryBase.sol\":1272:1273  i */\n      0x04\n      0x00\n        /* \"LibraryBase.sol\":1272:1275  i++ */\n      dup2\n      sload\n      dup1\n      swap3\n      swap2\n      swap1\n      tag_72\n      swap1\n      tag_73\n      jump\t// in\n    tag_72:\n      swap2\n      swap1\n      pop\n      sstore\n      pop\n        /* \"LibraryBase.sol\":1244:1469  for (i= 0; i < book.length; i++){... */\n      jump(tag_55)\n    tag_56:\n        /* \"LibraryBase.sol\":1086:1476  function borrowBookByTitle (string memory _title, bool _bookState) public returns (bool isborrowed){... */\n    tag_53:\n      swap3\n      swap2\n      pop\n      pop\n      jump\t// out\n        /* \"LibraryBase.sol\":101:121  address public owner */\n    tag_32:\n      0x00\n      dup1\n      sload\n      swap1\n      0x0100\n      exp\n      swap1\n      div\n      0xffffffffffffffffffffffffffffffffffffffff\n      and\n      dup2\n      jump\t// out\n        /* \"LibraryBase.sol\":553:601  mapping (string => bool) public titleToBookState */\n    tag_37:\n      0x06\n      dup2\n      dup1\n      mload\n      0x20\n      dup2\n      add\n      dup3\n      add\n      dup1\n      mload\n      dup5\n      dup3\n      mstore\n      0x20\n      dup4\n      add\n      0x20\n      dup6\n      add\n      keccak256\n      dup2\n      dup4\n      mstore\n      dup1\n      swap6\n      pop\n      pop\n      pop\n      pop\n      pop\n      pop\n      0x00\n      swap2\n      pop\n      sload\n      swap1\n      0x0100\n      exp\n      swap1\n      div\n      0xff\n      and\n      dup2\n      jump\t// out\n        /* \"#utility.yul\":7:82   */\n    tag_74:\n        /* \"#utility.yul\":40:46   */\n      0x00\n        /* \"#utility.yul\":73:75   */\n      0x40\n        /* \"#utility.yul\":67:76   */\n      mload\n        /* \"#utility.yul\":57:76   */\n      swap1\n      pop\n        /* \"#utility.yul\":7:82   */\n      swap1\n      jump\t// out\n        /* \"#utility.yul\":88:205   */\n    tag_75:\n        /* \"#utility.yul\":197:198   */\n      0x00\n        /* \"#utility.yul\":194:195   */\n      dup1\n        /* \"#utility.yul\":187:199   */\n      revert\n        /* \"#utility.yul\":211:328   */\n    tag_76:\n        /* \"#utility.yul\":320:321   */\n      0x00\n        /* \"#utility.yul\":317:318   */\n      dup1\n        /* \"#utility.yul\":310:322   */\n      revert\n        /* \"#utility.yul\":334:411   */\n    tag_77:\n        /* \"#utility.yul\":371:378   */\n      0x00\n        /* \"#utility.yul\":400:405   */\n      dup2\n        /* \"#utility.yul\":389:405   */\n      swap1\n      pop\n        /* \"#utility.yul\":334:411   */\n      swap2\n      swap1\n      pop\n      jump\t// out\n        /* \"#utility.yul\":417:539   */\n    tag_78:\n        /* \"#utility.yul\":490:514   */\n      tag_128\n        /* \"#utility.yul\":508:513   */\n      dup2\n        /* \"#utility.yul\":490:514   */\n      tag_77\n      jump\t// in\n    tag_128:\n        /* \"#utility.yul\":483:488   */\n      dup2\n        /* \"#utility.yul\":480:515   */\n      eq\n        /* \"#utility.yul\":470:533   */\n      tag_129\n      jumpi\n        /* \"#utility.yul\":529:530   */\n      0x00\n        /* \"#utility.yul\":526:527   */\n      dup1\n        /* \"#utility.yul\":519:531   */\n      revert\n        /* \"#utility.yul\":470:533   */\n    tag_129:\n        /* \"#utility.yul\":417:539   */\n      pop\n      jump\t// out\n        /* \"#utility.yul\":545:684   */\n    tag_79:\n        /* \"#utility.yul\":591:596   */\n      0x00\n        /* \"#utility.yul\":629:635   */\n      dup2\n        /* \"#utility.yul\":616:636   */\n      calldataload\n        /* \"#utility.yul\":607:636   */\n      swap1\n      pop\n        /* \"#utility.yul\":645:678   */\n      tag_131\n        /* \"#utility.yul\":672:677   */\n      dup2\n        /* \"#utility.yul\":645:678   */\n      tag_78\n      jump\t// in\n    tag_131:\n        /* \"#utility.yul\":545:684   */\n      swap3\n      swap2\n      pop\n      pop\n      jump\t// out\n        /* \"#utility.yul\":690:1019   */\n    tag_11:\n        /* \"#utility.yul\":749:755   */\n      0x00\n        /* \"#utility.yul\":798:800   */\n      0x20\n        /* \"#utility.yul\":786:795   */\n      dup3\n        /* \"#utility.yul\":777:784   */\n      dup5\n        /* \"#utility.yul\":773:796   */\n      sub\n        /* \"#utility.yul\":769:801   */\n      slt\n        /* \"#utility.yul\":766:885   */\n      iszero\n      tag_133\n      jumpi\n        /* \"#utility.yul\":804:883   */\n      tag_134\n      tag_75\n      jump\t// in\n    tag_134:\n        /* \"#utility.yul\":766:885   */\n    tag_133:\n        /* \"#utility.yul\":924:925   */\n      0x00\n        /* \"#utility.yul\":949:1002   */\n      tag_135\n        /* \"#utility.yul\":994:1001   */\n      dup5\n        /* \"#utility.yul\":985:991   */\n      dup3\n        /* \"#utility.yul\":974:983   */\n      dup6\n        /* \"#utility.yul\":970:992   */\n      add\n        /* \"#utility.yul\":949:1002   */\n      tag_79\n      jump\t// in\n    tag_135:\n        /* \"#utility.yul\":939:1002   */\n      swap2\n      pop\n        /* \"#utility.yul\":895:1012   */\n      pop\n        /* \"#utility.yul\":690:1019   */\n      swap3\n      swap2\n      pop\n      pop\n      jump\t// out\n        /* \"#utility.yul\":1025:1143   */\n    tag_80:\n        /* \"#utility.yul\":1112:1136   */\n      tag_137\n        /* \"#utility.yul\":1130:1135   */\n      dup2\n        /* \"#utility.yul\":1112:1136   */\n      tag_77\n      jump\t// in\n    tag_137:\n        /* \"#utility.yul\":1107:1110   */\n      dup3\n        /* \"#utility.yul\":1100:1137   */\n      mstore\n        /* \"#utility.yul\":1025:1143   */\n      pop\n      pop\n      jump\t// out\n        /* \"#utility.yul\":1149:1248   */\n    tag_81:\n        /* \"#utility.yul\":1201:1207   */\n      0x00\n        /* \"#utility.yul\":1235:1240   */\n      dup2\n        /* \"#utility.yul\":1229:1241   */\n      mload\n        /* \"#utility.yul\":1219:1241   */\n      swap1\n      pop\n        /* \"#utility.yul\":1149:1248   */\n      swap2\n      swap1\n      pop\n      jump\t// out\n        /* \"#utility.yul\":1254:1423   */\n    tag_82:\n        /* \"#utility.yul\":1338:1349   */\n      0x00\n        /* \"#utility.yul\":1372:1378   */\n      dup3\n        /* \"#utility.yul\":1367:1370   */\n      dup3\n        /* \"#utility.yul\":1360:1379   */\n      mstore\n        /* \"#utility.yul\":1412:1416   */\n      0x20\n        /* \"#utility.yul\":1407:1410   */\n      dup3\n        /* \"#utility.yul\":1403:1417   */\n      add\n        /* \"#utility.yul\":1388:1417   */\n      swap1\n      pop\n        /* \"#utility.yul\":1254:1423   */\n      swap3\n      swap2\n      pop\n      pop\n      jump\t// out\n        /* \"#utility.yul\":1429:1675   */\n    tag_83:\n        /* \"#utility.yul\":1510:1511   */\n      0x00\n        /* \"#utility.yul\":1520:1633   */\n    tag_141:\n        /* \"#utility.yul\":1534:1540   */\n      dup4\n        /* \"#utility.yul\":1531:1532   */\n      dup2\n        /* \"#utility.yul\":1528:1541   */\n      lt\n        /* \"#utility.yul\":1520:1633   */\n      iszero\n      tag_143\n      jumpi\n        /* \"#utility.yul\":1619:1620   */\n      dup1\n        /* \"#utility.yul\":1614:1617   */\n      dup3\n        /* \"#utility.yul\":1610:1621   */\n      add\n        /* \"#utility.yul\":1604:1622   */\n      mload\n        /* \"#utility.yul\":1600:1601   */\n      dup2\n        /* \"#utility.yul\":1595:1598   */\n      dup5\n        /* \"#utility.yul\":1591:1602   */\n      add\n        /* \"#utility.yul\":1584:1623   */\n      mstore\n        /* \"#utility.yul\":1556:1558   */\n      0x20\n        /* \"#utility.yul\":1553:1554   */\n      dup2\n        /* \"#utility.yul\":1549:1559   */\n      add\n        /* \"#utility.yul\":1544:1559   */\n      swap1\n      pop\n        /* \"#utility.yul\":1520:1633   */\n      jump(tag_141)\n    tag_143:\n        /* \"#utility.yul\":1667:1668   */\n      0x00\n        /* \"#utility.yul\":1658:1664   */\n      dup5\n        /* \"#utility.yul\":1653:1656   */\n      dup5\n        /* \"#utility.yul\":1649:1665   */\n      add\n        /* \"#utility.yul\":1642:1669   */\n      mstore\n        /* \"#utility.yul\":1491:1675   */\n      pop\n        /* \"#utility.yul\":1429:1675   */\n      pop\n      pop\n      pop\n      jump\t// out\n        /* \"#utility.yul\":1681:1783   */\n    tag_84:\n        /* \"#utility.yul\":1722:1728   */\n      0x00\n        /* \"#utility.yul\":1773:1775   */\n      0x1f\n        /* \"#utility.yul\":1769:1776   */\n      not\n        /* \"#utility.yul\":1764:1766   */\n      0x1f\n        /* \"#utility.yul\":1757:1762   */\n      dup4\n        /* \"#utility.yul\":1753:1767   */\n      add\n        /* \"#utility.yul\":1749:1777   */\n      and\n        /* \"#utility.yul\":1739:1777   */\n      swap1\n      pop\n        /* \"#utility.yul\":1681:1783   */\n      swap2\n      swap1\n      pop\n      jump\t// out\n        /* \"#utility.yul\":1789:2166   */\n    tag_85:\n        /* \"#utility.yul\":1877:1880   */\n      0x00\n        /* \"#utility.yul\":1905:1944   */\n      tag_146\n        /* \"#utility.yul\":1938:1943   */\n      dup3\n        /* \"#utility.yul\":1905:1944   */\n      tag_81\n      jump\t// in\n    tag_146:\n        /* \"#utility.yul\":1960:2031   */\n      tag_147\n        /* \"#utility.yul\":2024:2030   */\n      dup2\n        /* \"#utility.yul\":2019:2022   */\n      dup6\n        /* \"#utility.yul\":1960:2031   */\n      tag_82\n      jump\t// in\n    tag_147:\n        /* \"#utility.yul\":1953:2031   */\n      swap4\n      pop\n        /* \"#utility.yul\":2040:2105   */\n      tag_148\n        /* \"#utility.yul\":2098:2104   */\n      dup2\n        /* \"#utility.yul\":2093:2096   */\n      dup6\n        /* \"#utility.yul\":2086:2090   */\n      0x20\n        /* \"#utility.yul\":2079:2084   */\n      dup7\n        /* \"#utility.yul\":2075:2091   */\n      add\n        /* \"#utility.yul\":2040:2105   */\n      tag_83\n      jump\t// in\n    tag_148:\n        /* \"#utility.yul\":2130:2159   */\n      tag_149\n        /* \"#utility.yul\":2152:2158   */\n      dup2\n        /* \"#utility.yul\":2130:2159   */\n      tag_84\n      jump\t// in\n    tag_149:\n        /* \"#utility.yul\":2125:2128   */\n      dup5\n        /* \"#utility.yul\":2121:2160   */\n      add\n        /* \"#utility.yul\":2114:2160   */\n      swap2\n      pop\n        /* \"#utility.yul\":1881:2166   */\n      pop\n        /* \"#utility.yul\":1789:2166   */\n      swap3\n      swap2\n      pop\n      pop\n      jump\t// out\n        /* \"#utility.yul\":2172:2262   */\n    tag_86:\n        /* \"#utility.yul\":2206:2213   */\n      0x00\n        /* \"#utility.yul\":2249:2254   */\n      dup2\n        /* \"#utility.yul\":2242:2255   */\n      iszero\n        /* \"#utility.yul\":2235:2256   */\n      iszero\n        /* \"#utility.yul\":2224:2256   */\n      swap1\n      pop\n        /* \"#utility.yul\":2172:2262   */\n      swap2\n      swap1\n      pop\n      jump\t// out\n        /* \"#utility.yul\":2268:2377   */\n    tag_87:\n        /* \"#utility.yul\":2349:2370   */\n      tag_152\n        /* \"#utility.yul\":2364:2369   */\n      dup2\n        /* \"#utility.yul\":2349:2370   */\n      tag_86\n      jump\t// in\n    tag_152:\n        /* \"#utility.yul\":2344:2347   */\n      dup3\n        /* \"#utility.yul\":2337:2371   */\n      mstore\n        /* \"#utility.yul\":2268:2377   */\n      pop\n      pop\n      jump\t// out\n        /* \"#utility.yul\":2383:2904   */\n    tag_14:\n        /* \"#utility.yul\":2546:2550   */\n      0x00\n        /* \"#utility.yul\":2584:2586   */\n      0x60\n        /* \"#utility.yul\":2573:2582   */\n      dup3\n        /* \"#utility.yul\":2569:2587   */\n      add\n        /* \"#utility.yul\":2561:2587   */\n      swap1\n      pop\n        /* \"#utility.yul\":2597:2668   */\n      tag_154\n        /* \"#utility.yul\":2665:2666   */\n      0x00\n        /* \"#utility.yul\":2654:2663   */\n      dup4\n        /* \"#utility.yul\":2650:2667   */\n      add\n        /* \"#utility.yul\":2641:2647   */\n      dup7\n        /* \"#utility.yul\":2597:2668   */\n      tag_80\n      jump\t// in\n    tag_154:\n        /* \"#utility.yul\":2715:2724   */\n      dup2\n        /* \"#utility.yul\":2709:2713   */\n      dup2\n        /* \"#utility.yul\":2705:2725   */\n      sub\n        /* \"#utility.yul\":2700:2702   */\n      0x20\n        /* \"#utility.yul\":2689:2698   */\n      dup4\n        /* \"#utility.yul\":2685:2703   */\n      add\n        /* \"#utility.yul\":2678:2726   */\n      mstore\n        /* \"#utility.yul\":2743:2821   */\n      tag_155\n        /* \"#utility.yul\":2816:2820   */\n      dup2\n        /* \"#utility.yul\":2807:2813   */\n      dup6\n        /* \"#utility.yul\":2743:2821   */\n      tag_85\n      jump\t// in\n    tag_155:\n        /* \"#utility.yul\":2735:2821   */\n      swap1\n      pop\n        /* \"#utility.yul\":2831:2897   */\n      tag_156\n        /* \"#utility.yul\":2893:2895   */\n      0x40\n        /* \"#utility.yul\":2882:2891   */\n      dup4\n        /* \"#utility.yul\":2878:2896   */\n      add\n        /* \"#utility.yul\":2869:2875   */\n      dup5\n        /* \"#utility.yul\":2831:2897   */\n      tag_87\n      jump\t// in\n    tag_156:\n        /* \"#utility.yul\":2383:2904   */\n      swap5\n      swap4\n      pop\n      pop\n      pop\n      pop\n      jump\t// out\n        /* \"#utility.yul\":2910:3027   */\n    tag_88:\n        /* \"#utility.yul\":3019:3020   */\n      0x00\n        /* \"#utility.yul\":3016:3017   */\n      dup1\n        /* \"#utility.yul\":3009:3021   */\n      revert\n        /* \"#utility.yul\":3033:3150   */\n    tag_89:\n        /* \"#utility.yul\":3142:3143   */\n      0x00\n        /* \"#utility.yul\":3139:3140   */\n      dup1\n        /* \"#utility.yul\":3132:3144   */\n      revert\n        /* \"#utility.yul\":3156:3336   */\n    tag_90:\n        /* \"#utility.yul\":3204:3281   */\n      0x4e487b7100000000000000000000000000000000000000000000000000000000\n        /* \"#utility.yul\":3201:3202   */\n      0x00\n        /* \"#utility.yul\":3194:3282   */\n      mstore\n        /* \"#utility.yul\":3301:3305   */\n      0x41\n        /* \"#utility.yul\":3298:3299   */\n      0x04\n        /* \"#utility.yul\":3291:3306   */\n      mstore\n        /* \"#utility.yul\":3325:3329   */\n      0x24\n        /* \"#utility.yul\":3322:3323   */\n      0x00\n        /* \"#utility.yul\":3315:3330   */\n      revert\n        /* \"#utility.yul\":3342:3623   */\n    tag_91:\n        /* \"#utility.yul\":3425:3452   */\n      tag_161\n        /* \"#utility.yul\":3447:3451   */\n      dup3\n        /* \"#utility.yul\":3425:3452   */\n      tag_84\n      jump\t// in\n    tag_161:\n        /* \"#utility.yul\":3417:3423   */\n      dup2\n        /* \"#utility.yul\":3413:3453   */\n      add\n        /* \"#utility.yul\":3555:3561   */\n      dup2\n        /* \"#utility.yul\":3543:3553   */\n      dup2\n        /* \"#utility.yul\":3540:3562   */\n      lt\n        /* \"#utility.yul\":3519:3537   */\n      0xffffffffffffffff\n        /* \"#utility.yul\":3507:3517   */\n      dup3\n        /* \"#utility.yul\":3504:3538   */\n      gt\n        /* \"#utility.yul\":3501:3563   */\n      or\n        /* \"#utility.yul\":3498:3586   */\n      iszero\n      tag_162\n      jumpi\n        /* \"#utility.yul\":3566:3584   */\n      tag_163\n      tag_90\n      jump\t// in\n    tag_163:\n        /* \"#utility.yul\":3498:3586   */\n    tag_162:\n        /* \"#utility.yul\":3606:3616   */\n      dup1\n        /* \"#utility.yul\":3602:3604   */\n      0x40\n        /* \"#utility.yul\":3595:3617   */\n      mstore\n        /* \"#utility.yul\":3385:3623   */\n      pop\n        /* \"#utility.yul\":3342:3623   */\n      pop\n      pop\n      jump\t// out\n        /* \"#utility.yul\":3629:3758   */\n    tag_92:\n        /* \"#utility.yul\":3663:3669   */\n      0x00\n        /* \"#utility.yul\":3690:3710   */\n      tag_165\n      tag_74\n      jump\t// in\n    tag_165:\n        /* \"#utility.yul\":3680:3710   */\n      swap1\n      pop\n        /* \"#utility.yul\":3719:3752   */\n      tag_166\n        /* \"#utility.yul\":3747:3751   */\n      dup3\n        /* \"#utility.yul\":3739:3745   */\n      dup3\n        /* \"#utility.yul\":3719:3752   */\n      tag_91\n      jump\t// in\n    tag_166:\n        /* \"#utility.yul\":3629:3758   */\n      swap2\n      swap1\n      pop\n      jump\t// out\n        /* \"#utility.yul\":3764:4072   */\n    tag_93:\n        /* \"#utility.yul\":3826:3830   */\n      0x00\n        /* \"#utility.yul\":3916:3934   */\n      0xffffffffffffffff\n        /* \"#utility.yul\":3908:3914   */\n      dup3\n        /* \"#utility.yul\":3905:3935   */\n      gt\n        /* \"#utility.yul\":3902:3958   */\n      iszero\n      tag_168\n      jumpi\n        /* \"#utility.yul\":3938:3956   */\n      tag_169\n      tag_90\n      jump\t// in\n    tag_169:\n        /* \"#utility.yul\":3902:3958   */\n    tag_168:\n        /* \"#utility.yul\":3976:4005   */\n      tag_170\n        /* \"#utility.yul\":3998:4004   */\n      dup3\n        /* \"#utility.yul\":3976:4005   */\n      tag_84\n      jump\t// in\n    tag_170:\n        /* \"#utility.yul\":3968:4005   */\n      swap1\n      pop\n        /* \"#utility.yul\":4060:4064   */\n      0x20\n        /* \"#utility.yul\":4054:4058   */\n      dup2\n        /* \"#utility.yul\":4050:4065   */\n      add\n        /* \"#utility.yul\":4042:4065   */\n      swap1\n      pop\n        /* \"#utility.yul\":3764:4072   */\n      swap2\n      swap1\n      pop\n      jump\t// out\n        /* \"#utility.yul\":4078:4224   */\n    tag_94:\n        /* \"#utility.yul\":4175:4181   */\n      dup3\n        /* \"#utility.yul\":4170:4173   */\n      dup2\n        /* \"#utility.yul\":4165:4168   */\n      dup4\n        /* \"#utility.yul\":4152:4182   */\n      calldatacopy\n        /* \"#utility.yul\":4216:4217   */\n      0x00\n        /* \"#utility.yul\":4207:4213   */\n      dup4\n        /* \"#utility.yul\":4202:4205   */\n      dup4\n        /* \"#utility.yul\":4198:4214   */\n      add\n        /* \"#utility.yul\":4191:4218   */\n      mstore\n        /* \"#utility.yul\":4078:4224   */\n      pop\n      pop\n      pop\n      jump\t// out\n        /* \"#utility.yul\":4230:4655   */\n    tag_95:\n        /* \"#utility.yul\":4308:4313   */\n      0x00\n        /* \"#utility.yul\":4333:4399   */\n      tag_173\n        /* \"#utility.yul\":4349:4398   */\n      tag_174\n        /* \"#utility.yul\":4391:4397   */\n      dup5\n        /* \"#utility.yul\":4349:4398   */\n      tag_93\n      jump\t// in\n    tag_174:\n        /* \"#utility.yul\":4333:4399   */\n      tag_92\n      jump\t// in\n    tag_173:\n        /* \"#utility.yul\":4324:4399   */\n      swap1\n      pop\n        /* \"#utility.yul\":4422:4428   */\n      dup3\n        /* \"#utility.yul\":4415:4420   */\n      dup2\n        /* \"#utility.yul\":4408:4429   */\n      mstore\n        /* \"#utility.yul\":4460:4464   */\n      0x20\n        /* \"#utility.yul\":4453:4458   */\n      dup2\n        /* \"#utility.yul\":4449:4465   */\n      add\n        /* \"#utility.yul\":4498:4501   */\n      dup5\n        /* \"#utility.yul\":4489:4495   */\n      dup5\n        /* \"#utility.yul\":4484:4487   */\n      dup5\n        /* \"#utility.yul\":4480:4496   */\n      add\n        /* \"#utility.yul\":4477:4502   */\n      gt\n        /* \"#utility.yul\":4474:4586   */\n      iszero\n      tag_175\n      jumpi\n        /* \"#utility.yul\":4505:4584   */\n      tag_176\n      tag_89\n      jump\t// in\n    tag_176:\n        /* \"#utility.yul\":4474:4586   */\n    tag_175:\n        /* \"#utility.yul\":4595:4649   */\n      tag_177\n        /* \"#utility.yul\":4642:4648   */\n      dup5\n        /* \"#utility.yul\":4637:4640   */\n      dup3\n        /* \"#utility.yul\":4632:4635   */\n      dup6\n        /* \"#utility.yul\":4595:4649   */\n      tag_94\n      jump\t// in\n    tag_177:\n        /* \"#utility.yul\":4314:4655   */\n      pop\n        /* \"#utility.yul\":4230:4655   */\n      swap4\n      swap3\n      pop\n      pop\n      pop\n      jump\t// out\n        /* \"#utility.yul\":4675:5015   */\n    tag_96:\n        /* \"#utility.yul\":4731:4736   */\n      0x00\n        /* \"#utility.yul\":4780:4783   */\n      dup3\n        /* \"#utility.yul\":4773:4777   */\n      0x1f\n        /* \"#utility.yul\":4765:4771   */\n      dup4\n        /* \"#utility.yul\":4761:4778   */\n      add\n        /* \"#utility.yul\":4757:4784   */\n      slt\n        /* \"#utility.yul\":4747:4869   */\n      tag_179\n      jumpi\n        /* \"#utility.yul\":4788:4867   */\n      tag_180\n      tag_88\n      jump\t// in\n    tag_180:\n        /* \"#utility.yul\":4747:4869   */\n    tag_179:\n        /* \"#utility.yul\":4905:4911   */\n      dup2\n        /* \"#utility.yul\":4892:4912   */\n      calldataload\n        /* \"#utility.yul\":4930:5009   */\n      tag_181\n        /* \"#utility.yul\":5005:5008   */\n      dup5\n        /* \"#utility.yul\":4997:5003   */\n      dup3\n        /* \"#utility.yul\":4990:4994   */\n      0x20\n        /* \"#utility.yul\":4982:4988   */\n      dup7\n        /* \"#utility.yul\":4978:4995   */\n      add\n        /* \"#utility.yul\":4930:5009   */\n      tag_95\n      jump\t// in\n    tag_181:\n        /* \"#utility.yul\":4921:5009   */\n      swap2\n      pop\n        /* \"#utility.yul\":4737:5015   */\n      pop\n        /* \"#utility.yul\":4675:5015   */\n      swap3\n      swap2\n      pop\n      pop\n      jump\t// out\n        /* \"#utility.yul\":5021:5530   */\n    tag_17:\n        /* \"#utility.yul\":5090:5096   */\n      0x00\n        /* \"#utility.yul\":5139:5141   */\n      0x20\n        /* \"#utility.yul\":5127:5136   */\n      dup3\n        /* \"#utility.yul\":5118:5125   */\n      dup5\n        /* \"#utility.yul\":5114:5137   */\n      sub\n        /* \"#utility.yul\":5110:5142   */\n      slt\n        /* \"#utility.yul\":5107:5226   */\n      iszero\n      tag_183\n      jumpi\n        /* \"#utility.yul\":5145:5224   */\n      tag_184\n      tag_75\n      jump\t// in\n    tag_184:\n        /* \"#utility.yul\":5107:5226   */\n    tag_183:\n        /* \"#utility.yul\":5293:5294   */\n      0x00\n        /* \"#utility.yul\":5282:5291   */\n      dup3\n        /* \"#utility.yul\":5278:5295   */\n      add\n        /* \"#utility.yul\":5265:5296   */\n      calldataload\n        /* \"#utility.yul\":5323:5341   */\n      0xffffffffffffffff\n        /* \"#utility.yul\":5315:5321   */\n      dup2\n        /* \"#utility.yul\":5312:5342   */\n      gt\n        /* \"#utility.yul\":5309:5426   */\n      iszero\n      tag_185\n      jumpi\n        /* \"#utility.yul\":5345:5424   */\n      tag_186\n      tag_76\n      jump\t// in\n    tag_186:\n        /* \"#utility.yul\":5309:5426   */\n    tag_185:\n        /* \"#utility.yul\":5450:5513   */\n      tag_187\n        /* \"#utility.yul\":5505:5512   */\n      dup5\n        /* \"#utility.yul\":5496:5502   */\n      dup3\n        /* \"#utility.yul\":5485:5494   */\n      dup6\n        /* \"#utility.yul\":5481:5503   */\n      add\n        /* \"#utility.yul\":5450:5513   */\n      tag_96\n      jump\t// in\n    tag_187:\n        /* \"#utility.yul\":5440:5513   */\n      swap2\n      pop\n        /* \"#utility.yul\":5236:5523   */\n      pop\n        /* \"#utility.yul\":5021:5530   */\n      swap3\n      swap2\n      pop\n      pop\n      jump\t// out\n        /* \"#utility.yul\":5536:5758   */\n    tag_20:\n        /* \"#utility.yul\":5629:5633   */\n      0x00\n        /* \"#utility.yul\":5667:5669   */\n      0x20\n        /* \"#utility.yul\":5656:5665   */\n      dup3\n        /* \"#utility.yul\":5652:5670   */\n      add\n        /* \"#utility.yul\":5644:5670   */\n      swap1\n      pop\n        /* \"#utility.yul\":5680:5751   */\n      tag_189\n        /* \"#utility.yul\":5748:5749   */\n      0x00\n        /* \"#utility.yul\":5737:5746   */\n      dup4\n        /* \"#utility.yul\":5733:5750   */\n      add\n        /* \"#utility.yul\":5724:5730   */\n      dup5\n        /* \"#utility.yul\":5680:5751   */\n      tag_80\n      jump\t// in\n    tag_189:\n        /* \"#utility.yul\":5536:5758   */\n      swap3\n      swap2\n      pop\n      pop\n      jump\t// out\n        /* \"#utility.yul\":5764:5880   */\n    tag_97:\n        /* \"#utility.yul\":5834:5855   */\n      tag_191\n        /* \"#utility.yul\":5849:5854   */\n      dup2\n        /* \"#utility.yul\":5834:5855   */\n      tag_86\n      jump\t// in\n    tag_191:\n        /* \"#utility.yul\":5827:5832   */\n      dup2\n        /* \"#utility.yul\":5824:5856   */\n      eq\n        /* \"#utility.yul\":5814:5874   */\n      tag_192\n      jumpi\n        /* \"#utility.yul\":5870:5871   */\n      0x00\n        /* \"#utility.yul\":5867:5868   */\n      dup1\n        /* \"#utility.yul\":5860:5872   */\n      revert\n        /* \"#utility.yul\":5814:5874   */\n    tag_192:\n        /* \"#utility.yul\":5764:5880   */\n      pop\n      jump\t// out\n        /* \"#utility.yul\":5886:6019   */\n    tag_98:\n        /* \"#utility.yul\":5929:5934   */\n      0x00\n        /* \"#utility.yul\":5967:5973   */\n      dup2\n        /* \"#utility.yul\":5954:5974   */\n      calldataload\n        /* \"#utility.yul\":5945:5974   */\n      swap1\n      pop\n        /* \"#utility.yul\":5983:6013   */\n      tag_194\n        /* \"#utility.yul\":6007:6012   */\n      dup2\n        /* \"#utility.yul\":5983:6013   */\n      tag_97\n      jump\t// in\n    tag_194:\n        /* \"#utility.yul\":5886:6019   */\n      swap3\n      swap2\n      pop\n      pop\n      jump\t// out\n        /* \"#utility.yul\":6025:6818   */\n    tag_23:\n        /* \"#utility.yul\":6109:6115   */\n      0x00\n        /* \"#utility.yul\":6117:6123   */\n      dup1\n        /* \"#utility.yul\":6125:6131   */\n      0x00\n        /* \"#utility.yul\":6174:6176   */\n      0x60\n        /* \"#utility.yul\":6162:6171   */\n      dup5\n        /* \"#utility.yul\":6153:6160   */\n      dup7\n        /* \"#utility.yul\":6149:6172   */\n      sub\n        /* \"#utility.yul\":6145:6177   */\n      slt\n        /* \"#utility.yul\":6142:6261   */\n      iszero\n      tag_196\n      jumpi\n        /* \"#utility.yul\":6180:6259   */\n      tag_197\n      tag_75\n      jump\t// in\n    tag_197:\n        /* \"#utility.yul\":6142:6261   */\n    tag_196:\n        /* \"#utility.yul\":6328:6329   */\n      0x00\n        /* \"#utility.yul\":6317:6326   */\n      dup5\n        /* \"#utility.yul\":6313:6330   */\n      add\n        /* \"#utility.yul\":6300:6331   */\n      calldataload\n        /* \"#utility.yul\":6358:6376   */\n      0xffffffffffffffff\n        /* \"#utility.yul\":6350:6356   */\n      dup2\n        /* \"#utility.yul\":6347:6377   */\n      gt\n        /* \"#utility.yul\":6344:6461   */\n      iszero\n      tag_198\n      jumpi\n        /* \"#utility.yul\":6380:6459   */\n      tag_199\n      tag_76\n      jump\t// in\n    tag_199:\n        /* \"#utility.yul\":6344:6461   */\n    tag_198:\n        /* \"#utility.yul\":6485:6548   */\n      tag_200\n        /* \"#utility.yul\":6540:6547   */\n      dup7\n        /* \"#utility.yul\":6531:6537   */\n      dup3\n        /* \"#utility.yul\":6520:6529   */\n      dup8\n        /* \"#utility.yul\":6516:6538   */\n      add\n        /* \"#utility.yul\":6485:6548   */\n      tag_96\n      jump\t// in\n    tag_200:\n        /* \"#utility.yul\":6475:6548   */\n      swap4\n      pop\n        /* \"#utility.yul\":6271:6558   */\n      pop\n        /* \"#utility.yul\":6597:6599   */\n      0x20\n        /* \"#utility.yul\":6623:6676   */\n      tag_201\n        /* \"#utility.yul\":6668:6675   */\n      dup7\n        /* \"#utility.yul\":6659:6665   */\n      dup3\n        /* \"#utility.yul\":6648:6657   */\n      dup8\n        /* \"#utility.yul\":6644:6666   */\n      add\n        /* \"#utility.yul\":6623:6676   */\n      tag_79\n      jump\t// in\n    tag_201:\n        /* \"#utility.yul\":6613:6676   */\n      swap3\n      pop\n        /* \"#utility.yul\":6568:6686   */\n      pop\n        /* \"#utility.yul\":6725:6727   */\n      0x40\n        /* \"#utility.yul\":6751:6801   */\n      tag_202\n        /* \"#utility.yul\":6793:6800   */\n      dup7\n        /* \"#utility.yul\":6784:6790   */\n      dup3\n        /* \"#utility.yul\":6773:6782   */\n      dup8\n        /* \"#utility.yul\":6769:6791   */\n      add\n        /* \"#utility.yul\":6751:6801   */\n      tag_98\n      jump\t// in\n    tag_202:\n        /* \"#utility.yul\":6741:6801   */\n      swap2\n      pop\n        /* \"#utility.yul\":6696:6811   */\n      pop\n        /* \"#utility.yul\":6025:6818   */\n      swap3\n      pop\n      swap3\n      pop\n      swap3\n      jump\t// out\n        /* \"#utility.yul\":6824:7472   */\n    tag_27:\n        /* \"#utility.yul\":6899:6905   */\n      0x00\n        /* \"#utility.yul\":6907:6913   */\n      dup1\n        /* \"#utility.yul\":6956:6958   */\n      0x40\n        /* \"#utility.yul\":6944:6953   */\n      dup4\n        /* \"#utility.yul\":6935:6942   */\n      dup6\n        /* \"#utility.yul\":6931:6954   */\n      sub\n        /* \"#utility.yul\":6927:6959   */\n      slt\n        /* \"#utility.yul\":6924:7043   */\n      iszero\n      tag_204\n      jumpi\n        /* \"#utility.yul\":6962:7041   */\n      tag_205\n      tag_75\n      jump\t// in\n    tag_205:\n        /* \"#utility.yul\":6924:7043   */\n    tag_204:\n        /* \"#utility.yul\":7110:7111   */\n      0x00\n        /* \"#utility.yul\":7099:7108   */\n      dup4\n        /* \"#utility.yul\":7095:7112   */\n      add\n        /* \"#utility.yul\":7082:7113   */\n      calldataload\n        /* \"#utility.yul\":7140:7158   */\n      0xffffffffffffffff\n        /* \"#utility.yul\":7132:7138   */\n      dup2\n        /* \"#utility.yul\":7129:7159   */\n      gt\n        /* \"#utility.yul\":7126:7243   */\n      iszero\n      tag_206\n      jumpi\n        /* \"#utility.yul\":7162:7241   */\n      tag_207\n      tag_76\n      jump\t// in\n    tag_207:\n        /* \"#utility.yul\":7126:7243   */\n    tag_206:\n        /* \"#utility.yul\":7267:7330   */\n      tag_208\n        /* \"#utility.yul\":7322:7329   */\n      dup6\n        /* \"#utility.yul\":7313:7319   */\n      dup3\n        /* \"#utility.yul\":7302:7311   */\n      dup7\n        /* \"#utility.yul\":7298:7320   */\n      add\n        /* \"#utility.yul\":7267:7330   */\n      tag_96\n      jump\t// in\n    tag_208:\n        /* \"#utility.yul\":7257:7330   */\n      swap3\n      pop\n        /* \"#utility.yul\":7053:7340   */\n      pop\n        /* \"#utility.yul\":7379:7381   */\n      0x20\n        /* \"#utility.yul\":7405:7455   */\n      tag_209\n        /* \"#utility.yul\":7447:7454   */\n      dup6\n        /* \"#utility.yul\":7438:7444   */\n      dup3\n        /* \"#utility.yul\":7427:7436   */\n      dup7\n        /* \"#utility.yul\":7423:7445   */\n      add\n        /* \"#utility.yul\":7405:7455   */\n      tag_98\n      jump\t// in\n    tag_209:\n        /* \"#utility.yul\":7395:7455   */\n      swap2\n      pop\n        /* \"#utility.yul\":7350:7465   */\n      pop\n        /* \"#utility.yul\":6824:7472   */\n      swap3\n      pop\n      swap3\n      swap1\n      pop\n      jump\t// out\n        /* \"#utility.yul\":7478:7688   */\n    tag_30:\n        /* \"#utility.yul\":7565:7569   */\n      0x00\n        /* \"#utility.yul\":7603:7605   */\n      0x20\n        /* \"#utility.yul\":7592:7601   */\n      dup3\n        /* \"#utility.yul\":7588:7606   */\n      add\n        /* \"#utility.yul\":7580:7606   */\n      swap1\n      pop\n        /* \"#utility.yul\":7616:7681   */\n      tag_211\n        /* \"#utility.yul\":7678:7679   */\n      0x00\n        /* \"#utility.yul\":7667:7676   */\n      dup4\n        /* \"#utility.yul\":7663:7680   */\n      add\n        /* \"#utility.yul\":7654:7660   */\n      dup5\n        /* \"#utility.yul\":7616:7681   */\n      tag_87\n      jump\t// in\n    tag_211:\n        /* \"#utility.yul\":7478:7688   */\n      swap3\n      swap2\n      pop\n      pop\n      jump\t// out\n        /* \"#utility.yul\":7694:7820   */\n    tag_99:\n        /* \"#utility.yul\":7731:7738   */\n      0x00\n        /* \"#utility.yul\":7771:7813   */\n      0xffffffffffffffffffffffffffffffffffffffff\n        /* \"#utility.yul\":7764:7769   */\n      dup3\n        /* \"#utility.yul\":7760:7814   */\n      and\n        /* \"#utility.yul\":7749:7814   */\n      swap1\n      pop\n        /* \"#utility.yul\":7694:7820   */\n      swap2\n      swap1\n      pop\n      jump\t// out\n        /* \"#utility.yul\":7826:7922   */\n    tag_100:\n        /* \"#utility.yul\":7863:7870   */\n      0x00\n        /* \"#utility.yul\":7892:7916   */\n      tag_214\n        /* \"#utility.yul\":7910:7915   */\n      dup3\n        /* \"#utility.yul\":7892:7916   */\n      tag_99\n      jump\t// in\n    tag_214:\n        /* \"#utility.yul\":7881:7916   */\n      swap1\n      pop\n        /* \"#utility.yul\":7826:7922   */\n      swap2\n      swap1\n      pop\n      jump\t// out\n        /* \"#utility.yul\":7928:8046   */\n    tag_101:\n        /* \"#utility.yul\":8015:8039   */\n      tag_216\n        /* \"#utility.yul\":8033:8038   */\n      dup2\n        /* \"#utility.yul\":8015:8039   */\n      tag_100\n      jump\t// in\n    tag_216:\n        /* \"#utility.yul\":8010:8013   */\n      dup3\n        /* \"#utility.yul\":8003:8040   */\n      mstore\n        /* \"#utility.yul\":7928:8046   */\n      pop\n      pop\n      jump\t// out\n        /* \"#utility.yul\":8052:8274   */\n    tag_34:\n        /* \"#utility.yul\":8145:8149   */\n      0x00\n        /* \"#utility.yul\":8183:8185   */\n      0x20\n        /* \"#utility.yul\":8172:8181   */\n      dup3\n        /* \"#utility.yul\":8168:8186   */\n      add\n        /* \"#utility.yul\":8160:8186   */\n      swap1\n      pop\n        /* \"#utility.yul\":8196:8267   */\n      tag_218\n        /* \"#utility.yul\":8264:8265   */\n      0x00\n        /* \"#utility.yul\":8253:8262   */\n      dup4\n        /* \"#utility.yul\":8249:8266   */\n      add\n        /* \"#utility.yul\":8240:8246   */\n      dup5\n        /* \"#utility.yul\":8196:8267   */\n      tag_101\n      jump\t// in\n    tag_218:\n        /* \"#utility.yul\":8052:8274   */\n      swap3\n      swap2\n      pop\n      pop\n      jump\t// out\n        /* \"#utility.yul\":8280:8460   */\n    tag_102:\n        /* \"#utility.yul\":8328:8405   */\n      0x4e487b7100000000000000000000000000000000000000000000000000000000\n        /* \"#utility.yul\":8325:8326   */\n      0x00\n        /* \"#utility.yul\":8318:8406   */\n      mstore\n        /* \"#utility.yul\":8425:8429   */\n      0x22\n        /* \"#utility.yul\":8422:8423   */\n      0x04\n        /* \"#utility.yul\":8415:8430   */\n      mstore\n        /* \"#utility.yul\":8449:8453   */\n      0x24\n        /* \"#utility.yul\":8446:8447   */\n      0x00\n        /* \"#utility.yul\":8439:8454   */\n      revert\n        /* \"#utility.yul\":8466:8786   */\n    tag_42:\n        /* \"#utility.yul\":8510:8516   */\n      0x00\n        /* \"#utility.yul\":8547:8548   */\n      0x02\n        /* \"#utility.yul\":8541:8545   */\n      dup3\n        /* \"#utility.yul\":8537:8549   */\n      div\n        /* \"#utility.yul\":8527:8549   */\n      swap1\n      pop\n        /* \"#utility.yul\":8594:8595   */\n      0x01\n        /* \"#utility.yul\":8588:8592   */\n      dup3\n        /* \"#utility.yul\":8584:8596   */\n      and\n        /* \"#utility.yul\":8615:8633   */\n      dup1\n        /* \"#utility.yul\":8605:8686   */\n      tag_221\n      jumpi\n        /* \"#utility.yul\":8671:8675   */\n      0x7f\n        /* \"#utility.yul\":8663:8669   */\n      dup3\n        /* \"#utility.yul\":8659:8676   */\n      and\n        /* \"#utility.yul\":8649:8676   */\n      swap2\n      pop\n        /* \"#utility.yul\":8605:8686   */\n    tag_221:\n        /* \"#utility.yul\":8733:8735   */\n      0x20\n        /* \"#utility.yul\":8725:8731   */\n      dup3\n        /* \"#utility.yul\":8722:8736   */\n      lt\n        /* \"#utility.yul\":8702:8720   */\n      dup2\n        /* \"#utility.yul\":8699:8737   */\n      sub\n        /* \"#utility.yul\":8696:8780   */\n      tag_222\n      jumpi\n        /* \"#utility.yul\":8752:8770   */\n      tag_223\n      tag_102\n      jump\t// in\n    tag_223:\n        /* \"#utility.yul\":8696:8780   */\n    tag_222:\n        /* \"#utility.yul\":8517:8786   */\n      pop\n        /* \"#utility.yul\":8466:8786   */\n      swap2\n      swap1\n      pop\n      jump\t// out\n        /* \"#utility.yul\":8792:8933   */\n    tag_103:\n        /* \"#utility.yul\":8841:8845   */\n      0x00\n        /* \"#utility.yul\":8864:8867   */\n      dup2\n        /* \"#utility.yul\":8856:8867   */\n      swap1\n      pop\n        /* \"#utility.yul\":8887:8890   */\n      dup2\n        /* \"#utility.yul\":8884:8885   */\n      0x00\n        /* \"#utility.yul\":8877:8891   */\n      mstore\n        /* \"#utility.yul\":8921:8925   */\n      0x20\n        /* \"#utility.yul\":8918:8919   */\n      0x00\n        /* \"#utility.yul\":8908:8926   */\n      keccak256\n        /* \"#utility.yul\":8900:8926   */\n      swap1\n      pop\n        /* \"#utility.yul\":8792:8933   */\n      swap2\n      swap1\n      pop\n      jump\t// out\n        /* \"#utility.yul\":8939:9032   */\n    tag_104:\n        /* \"#utility.yul\":8976:8982   */\n      0x00\n        /* \"#utility.yul\":9023:9025   */\n      0x20\n        /* \"#utility.yul\":9018:9020   */\n      0x1f\n        /* \"#utility.yul\":9011:9016   */\n      dup4\n        /* \"#utility.yul\":9007:9021   */\n      add\n        /* \"#utility.yul\":9003:9026   */\n      div\n        /* \"#utility.yul\":8993:9026   */\n      swap1\n      pop\n        /* \"#utility.yul\":8939:9032   */\n      swap2\n      swap1\n      pop\n      jump\t// out\n        /* \"#utility.yul\":9038:9145   */\n    tag_105:\n        /* \"#utility.yul\":9082:9090   */\n      0x00\n        /* \"#utility.yul\":9132:9137   */\n      dup3\n        /* \"#utility.yul\":9126:9130   */\n      dup3\n        /* \"#utility.yul\":9122:9138   */\n      shl\n        /* \"#utility.yul\":9101:9138   */\n      swap1\n      pop\n        /* \"#utility.yul\":9038:9145   */\n      swap3\n      swap2\n      pop\n      pop\n      jump\t// out\n        /* \"#utility.yul\":9151:9544   */\n    tag_106:\n        /* \"#utility.yul\":9220:9226   */\n      0x00\n        /* \"#utility.yul\":9270:9271   */\n      0x08\n        /* \"#utility.yul\":9258:9268   */\n      dup4\n        /* \"#utility.yul\":9254:9272   */\n      mul\n        /* \"#utility.yul\":9293:9390   */\n      tag_228\n        /* \"#utility.yul\":9323:9389   */\n      0xffffffffffffffffffffffffffffffffffffffffffffffffffffffffffffffff\n        /* \"#utility.yul\":9312:9321   */\n      dup3\n        /* \"#utility.yul\":9293:9390   */\n      tag_105\n      jump\t// in\n    tag_228:\n        /* \"#utility.yul\":9411:9450   */\n      tag_229\n        /* \"#utility.yul\":9441:9449   */\n      dup7\n        /* \"#utility.yul\":9430:9439   */\n      dup4\n        /* \"#utility.yul\":9411:9450   */\n      tag_105\n      jump\t// in\n    tag_229:\n        /* \"#utility.yul\":9399:9450   */\n      swap6\n      pop\n        /* \"#utility.yul\":9483:9487   */\n      dup1\n        /* \"#utility.yul\":9479:9488   */\n      not\n        /* \"#utility.yul\":9472:9477   */\n      dup5\n        /* \"#utility.yul\":9468:9489   */\n      and\n        /* \"#utility.yul\":9459:9489   */\n      swap4\n      pop\n        /* \"#utility.yul\":9532:9536   */\n      dup1\n        /* \"#utility.yul\":9522:9530   */\n      dup7\n        /* \"#utility.yul\":9518:9537   */\n      and\n        /* \"#utility.yul\":9511:9516   */\n      dup5\n        /* \"#utility.yul\":9508:9538   */\n      or\n        /* \"#utility.yul\":9498:9538   */\n      swap3\n      pop\n        /* \"#utility.yul\":9227:9544   */\n      pop\n      pop\n        /* \"#utility.yul\":9151:9544   */\n      swap4\n      swap3\n      pop\n      pop\n      pop\n      jump\t// out\n        /* \"#utility.yul\":9550:9610   */\n    tag_107:\n        /* \"#utility.yul\":9578:9581   */\n      0x00\n        /* \"#utility.yul\":9599:9604   */\n      dup2\n        /* \"#utility.yul\":9592:9604   */\n      swap1\n      pop\n        /* \"#utility.yul\":9550:9610   */\n      swap2\n      swap1\n      pop\n      jump\t// out\n        /* \"#utility.yul\":9616:9758   */\n    tag_108:\n        /* \"#utility.yul\":9666:9675   */\n      0x00\n        /* \"#utility.yul\":9699:9752   */\n      tag_232\n        /* \"#utility.yul\":9717:9751   */\n      tag_233\n        /* \"#utility.yul\":9726:9750   */\n      tag_234\n        /* \"#utility.yul\":9744:9749   */\n      dup5\n        /* \"#utility.yul\":9726:9750   */\n      tag_77\n      jump\t// in\n    tag_234:\n        /* \"#utility.yul\":9717:9751   */\n      tag_107\n      jump\t// in\n    tag_233:\n        /* \"#utility.yul\":9699:9752   */\n      tag_77\n      jump\t// in\n    tag_232:\n        /* \"#utility.yul\":9686:9752   */\n      swap1\n      pop\n        /* \"#utility.yul\":9616:9758   */\n      swap2\n      swap1\n      pop\n      jump\t// out\n        /* \"#utility.yul\":9764:9839   */\n    tag_109:\n        /* \"#utility.yul\":9807:9810   */\n      0x00\n        /* \"#utility.yul\":9828:9833   */\n      dup2\n        /* \"#utility.yul\":9821:9833   */\n      swap1\n      pop\n        /* \"#utility.yul\":9764:9839   */\n      swap2\n      swap1\n      pop\n      jump\t// out\n        /* \"#utility.yul\":9845:10114   */\n    tag_110:\n        /* \"#utility.yul\":9955:9994   */\n      tag_237\n        /* \"#utility.yul\":9986:9993   */\n      dup4\n        /* \"#utility.yul\":9955:9994   */\n      tag_108\n      jump\t// in\n    tag_237:\n        /* \"#utility.yul\":10016:10107   */\n      tag_238\n        /* \"#utility.yul\":10065:10106   */\n      tag_239\n        /* \"#utility.yul\":10089:10105   */\n      dup3\n        /* \"#utility.yul\":10065:10106   */\n      tag_109\n      jump\t// in\n    tag_239:\n        /* \"#utility.yul\":10057:10063   */\n      dup5\n        /* \"#utility.yul\":10050:10054   */\n      dup5\n        /* \"#utility.yul\":10044:10055   */\n      sload\n        /* \"#utility.yul\":10016:10107   */\n      tag_106\n      jump\t// in\n    tag_238:\n        /* \"#utility.yul\":10010:10014   */\n      dup3\n        /* \"#utility.yul\":10003:10108   */\n      sstore\n        /* \"#utility.yul\":9921:10114   */\n      pop\n        /* \"#utility.yul\":9845:10114   */\n      pop\n      pop\n      pop\n      jump\t// out\n        /* \"#utility.yul\":10120:10193   */\n    tag_111:\n        /* \"#utility.yul\":10165:10168   */\n      0x00\n        /* \"#utility.yul\":10120:10193   */\n      swap1\n      jump\t// out\n        /* \"#utility.yul\":10199:10388   */\n    tag_112:\n        /* \"#utility.yul\":10276:10308   */\n      tag_242\n      tag_111\n      jump\t// in\n    tag_242:\n        /* \"#utility.yul\":10317:10382   */\n      tag_243\n        /* \"#utility.yul\":10375:10381   */\n      dup2\n        /* \"#utility.yul\":10367:10373   */\n      dup5\n        /* \"#utility.yul\":10361:10365   */\n      dup5\n        /* \"#utility.yul\":10317:10382   */\n      tag_110\n      jump\t// in\n    tag_243:\n        /* \"#utility.yul\":10252:10388   */\n      pop\n        /* \"#utility.yul\":10199:10388   */\n      pop\n      pop\n      jump\t// out\n        /* \"#utility.yul\":10394:10580   */\n    tag_113:\n        /* \"#utility.yul\":10454:10574   */\n    tag_245:\n        /* \"#utility.yul\":10471:10474   */\n      dup2\n        /* \"#utility.yul\":10464:10469   */\n      dup2\n        /* \"#utility.yul\":10461:10475   */\n      lt\n        /* \"#utility.yul\":10454:10574   */\n      iszero\n      tag_247\n      jumpi\n        /* \"#utility.yul\":10525:10564   */\n      tag_248\n        /* \"#utility.yul\":10562:10563   */\n      0x00\n        /* \"#utility.yul\":10555:10560   */\n      dup3\n        /* \"#utility.yul\":10525:10564   */\n      tag_112\n      jump\t// in\n    tag_248:\n        /* \"#utility.yul\":10498:10499   */\n      0x01\n        /* \"#utility.yul\":10491:10496   */\n      dup2\n        /* \"#utility.yul\":10487:10500   */\n      add\n        /* \"#utility.yul\":10478:10500   */\n      swap1\n      pop\n        /* \"#utility.yul\":10454:10574   */\n      jump(tag_245)\n    tag_247:\n        /* \"#utility.yul\":10394:10580   */\n      pop\n      pop\n      jump\t// out\n        /* \"#utility.yul\":10586:11129   */\n    tag_114:\n        /* \"#utility.yul\":10687:10689   */\n      0x1f\n        /* \"#utility.yul\":10682:10685   */\n      dup3\n        /* \"#utility.yul\":10679:10690   */\n      gt\n        /* \"#utility.yul\":10676:11122   */\n      iszero\n      tag_250\n      jumpi\n        /* \"#utility.yul\":10721:10759   */\n      tag_251\n        /* \"#utility.yul\":10753:10758   */\n      dup2\n        /* \"#utility.yul\":10721:10759   */\n      tag_103\n      jump\t// in\n    tag_251:\n        /* \"#utility.yul\":10805:10834   */\n      tag_252\n        /* \"#utility.yul\":10823:10833   */\n      dup5\n        /* \"#utility.yul\":10805:10834   */\n      tag_104\n      jump\t// in\n    tag_252:\n        /* \"#utility.yul\":10795:10803   */\n      dup2\n        /* \"#utility.yul\":10791:10835   */\n      add\n        /* \"#utility.yul\":10988:10990   */\n      0x20\n        /* \"#utility.yul\":10976:10986   */\n      dup6\n        /* \"#utility.yul\":10973:10991   */\n      lt\n        /* \"#utility.yul\":10970:11019   */\n      iszero\n      tag_253\n      jumpi\n        /* \"#utility.yul\":11009:11017   */\n      dup2\n        /* \"#utility.yul\":10994:11017   */\n      swap1\n      pop\n        /* \"#utility.yul\":10970:11019   */\n    tag_253:\n        /* \"#utility.yul\":11032:11112   */\n      tag_254\n        /* \"#utility.yul\":11088:11110   */\n      tag_255\n        /* \"#utility.yul\":11106:11109   */\n      dup6\n        /* \"#utility.yul\":11088:11110   */\n      tag_104\n      jump\t// in\n    tag_255:\n        /* \"#utility.yul\":11078:11086   */\n      dup4\n        /* \"#utility.yul\":11074:11111   */\n      add\n        /* \"#utility.yul\":11061:11072   */\n      dup3\n        /* \"#utility.yul\":11032:11112   */\n      tag_113\n      jump\t// in\n    tag_254:\n        /* \"#utility.yul\":10691:11122   */\n      pop\n      pop\n        /* \"#utility.yul\":10676:11122   */\n    tag_250:\n        /* \"#utility.yul\":10586:11129   */\n      pop\n      pop\n      pop\n      jump\t// out\n        /* \"#utility.yul\":11135:11252   */\n    tag_115:\n        /* \"#utility.yul\":11189:11197   */\n      0x00\n        /* \"#utility.yul\":11239:11244   */\n      dup3\n        /* \"#utility.yul\":11233:11237   */\n      dup3\n        /* \"#utility.yul\":11229:11245   */\n      shr\n        /* \"#utility.yul\":11208:11245   */\n      swap1\n      pop\n        /* \"#utility.yul\":11135:11252   */\n      swap3\n      swap2\n      pop\n      pop\n      jump\t// out\n        /* \"#utility.yul\":11258:11427   */\n    tag_116:\n        /* \"#utility.yul\":11302:11308   */\n      0x00\n        /* \"#utility.yul\":11335:11386   */\n      tag_258\n        /* \"#utility.yul\":11383:11384   */\n      0x00\n        /* \"#utility.yul\":11379:11385   */\n      not\n        /* \"#utility.yul\":11371:11376   */\n      dup5\n        /* \"#utility.yul\":11368:11369   */\n      0x08\n        /* \"#utility.yul\":11364:11377   */\n      mul\n        /* \"#utility.yul\":11335:11386   */\n      tag_115\n      jump\t// in\n    tag_258:\n        /* \"#utility.yul\":11331:11387   */\n      not\n        /* \"#utility.yul\":11416:11420   */\n      dup1\n        /* \"#utility.yul\":11410:11414   */\n      dup4\n        /* \"#utility.yul\":11406:11421   */\n      and\n        /* \"#utility.yul\":11396:11421   */\n      swap2\n      pop\n        /* \"#utility.yul\":11309:11427   */\n      pop\n        /* \"#utility.yul\":11258:11427   */\n      swap3\n      swap2\n      pop\n      pop\n      jump\t// out\n        /* \"#utility.yul\":11432:11727   */\n    tag_117:\n        /* \"#utility.yul\":11508:11512   */\n      0x00\n        /* \"#utility.yul\":11654:11683   */\n      tag_260\n        /* \"#utility.yul\":11679:11682   */\n      dup4\n        /* \"#utility.yul\":11673:11677   */\n      dup4\n        /* \"#utility.yul\":11654:11683   */\n      tag_116\n      jump\t// in\n    tag_260:\n        /* \"#utility.yul\":11646:11683   */\n      swap2\n      pop\n        /* \"#utility.yul\":11716:11719   */\n      dup3\n        /* \"#utility.yul\":11713:11714   */\n      0x02\n        /* \"#utility.yul\":11709:11720   */\n      mul\n        /* \"#utility.yul\":11703:11707   */\n      dup3\n        /* \"#utility.yul\":11700:11721   */\n      or\n        /* \"#utility.yul\":11692:11721   */\n      swap1\n      pop\n        /* \"#utility.yul\":11432:11727   */\n      swap3\n      swap2\n      pop\n      pop\n      jump\t// out\n        /* \"#utility.yul\":11732:13127   */\n    tag_50:\n        /* \"#utility.yul\":11849:11886   */\n      tag_262\n        /* \"#utility.yul\":11882:11885   */\n      dup3\n        /* \"#utility.yul\":11849:11886   */\n      tag_81\n      jump\t// in\n    tag_262:\n        /* \"#utility.yul\":11951:11969   */\n      0xffffffffffffffff\n        /* \"#utility.yul\":11943:11949   */\n      dup2\n        /* \"#utility.yul\":11940:11970   */\n      gt\n        /* \"#utility.yul\":11937:11993   */\n      iszero\n      tag_263\n      jumpi\n        /* \"#utility.yul\":11973:11991   */\n      tag_264\n      tag_90\n      jump\t// in\n    tag_264:\n        /* \"#utility.yul\":11937:11993   */\n    tag_263:\n        /* \"#utility.yul\":12017:12055   */\n      tag_265\n        /* \"#utility.yul\":12049:12053   */\n      dup3\n        /* \"#utility.yul\":12043:12054   */\n      sload\n        /* \"#utility.yul\":12017:12055   */\n      tag_42\n      jump\t// in\n    tag_265:\n        /* \"#utility.yul\":12102:12169   */\n      tag_266\n        /* \"#utility.yul\":12162:12168   */\n      dup3\n        /* \"#utility.yul\":12154:12160   */\n      dup3\n        /* \"#utility.yul\":12148:12152   */\n      dup6\n        /* \"#utility.yul\":12102:12169   */\n      tag_114\n      jump\t// in\n    tag_266:\n        /* \"#utility.yul\":12196:12197   */\n      0x00\n        /* \"#utility.yul\":12220:12224   */\n      0x20\n        /* \"#utility.yul\":12207:12224   */\n      swap1\n      pop\n        /* \"#utility.yul\":12252:12254   */\n      0x1f\n        /* \"#utility.yul\":12244:12250   */\n      dup4\n        /* \"#utility.yul\":12241:12255   */\n      gt\n        /* \"#utility.yul\":12269:12270   */\n      0x01\n        /* \"#utility.yul\":12264:12882   */\n      dup2\n      eq\n      tag_268\n      jumpi\n        /* \"#utility.yul\":12926:12927   */\n      0x00\n        /* \"#utility.yul\":12943:12949   */\n      dup5\n        /* \"#utility.yul\":12940:13017   */\n      iszero\n      tag_269\n      jumpi\n        /* \"#utility.yul\":12992:13001   */\n      dup3\n        /* \"#utility.yul\":12987:12990   */\n      dup8\n        /* \"#utility.yul\":12983:13002   */\n      add\n        /* \"#utility.yul\":12977:13003   */\n      mload\n        /* \"#utility.yul\":12968:13003   */\n      swap1\n      pop\n        /* \"#utility.yul\":12940:13017   */\n    tag_269:\n        /* \"#utility.yul\":13043:13110   */\n      tag_270\n        /* \"#utility.yul\":13103:13109   */\n      dup6\n        /* \"#utility.yul\":13096:13101   */\n      dup3\n        /* \"#utility.yul\":13043:13110   */\n      tag_117\n      jump\t// in\n    tag_270:\n        /* \"#utility.yul\":13037:13041   */\n      dup7\n        /* \"#utility.yul\":13030:13111   */\n      sstore\n        /* \"#utility.yul\":12899:13121   */\n      pop\n        /* \"#utility.yul\":12234:13121   */\n      jump(tag_267)\n        /* \"#utility.yul\":12264:12882   */\n    tag_268:\n        /* \"#utility.yul\":12316:12320   */\n      0x1f\n        /* \"#utility.yul\":12312:12321   */\n      not\n        /* \"#utility.yul\":12304:12310   */\n      dup5\n        /* \"#utility.yul\":12300:12322   */\n      and\n        /* \"#utility.yul\":12350:12387   */\n      tag_271\n        /* \"#utility.yul\":12382:12386   */\n      dup7\n        /* \"#utility.yul\":12350:12387   */\n      tag_103\n      jump\t// in\n    tag_271:\n        /* \"#utility.yul\":12409:12410   */\n      0x00\n        /* \"#utility.yul\":12423:12631   */\n    tag_272:\n        /* \"#utility.yul\":12437:12444   */\n      dup3\n        /* \"#utility.yul\":12434:12435   */\n      dup2\n        /* \"#utility.yul\":12431:12445   */\n      lt\n        /* \"#utility.yul\":12423:12631   */\n      iszero\n      tag_274\n      jumpi\n        /* \"#utility.yul\":12516:12525   */\n      dup5\n        /* \"#utility.yul\":12511:12514   */\n      dup10\n        /* \"#utility.yul\":12507:12526   */\n      add\n        /* \"#utility.yul\":12501:12527   */\n      mload\n        /* \"#utility.yul\":12493:12499   */\n      dup3\n        /* \"#utility.yul\":12486:12528   */\n      sstore\n        /* \"#utility.yul\":12567:12568   */\n      0x01\n        /* \"#utility.yul\":12559:12565   */\n      dup3\n        /* \"#utility.yul\":12555:12569   */\n      add\n        /* \"#utility.yul\":12545:12569   */\n      swap2\n      pop\n        /* \"#utility.yul\":12614:12616   */\n      0x20\n        /* \"#utility.yul\":12603:12612   */\n      dup6\n        /* \"#utility.yul\":12599:12617   */\n      add\n        /* \"#utility.yul\":12586:12617   */\n      swap5\n      pop\n        /* \"#utility.yul\":12460:12464   */\n      0x20\n        /* \"#utility.yul\":12457:12458   */\n      dup2\n        /* \"#utility.yul\":12453:12465   */\n      add\n        /* \"#utility.yul\":12448:12465   */\n      swap1\n      pop\n        /* \"#utility.yul\":12423:12631   */\n      jump(tag_272)\n    tag_274:\n        /* \"#utility.yul\":12659:12665   */\n      dup7\n        /* \"#utility.yul\":12650:12657   */\n      dup4\n        /* \"#utility.yul\":12647:12666   */\n      lt\n        /* \"#utility.yul\":12644:12823   */\n      iszero\n      tag_275\n      jumpi\n        /* \"#utility.yul\":12717:12726   */\n      dup5\n        /* \"#utility.yul\":12712:12715   */\n      dup10\n        /* \"#utility.yul\":12708:12727   */\n      add\n        /* \"#utility.yul\":12702:12728   */\n      mload\n        /* \"#utility.yul\":12760:12808   */\n      tag_276\n        /* \"#utility.yul\":12802:12806   */\n      0x1f\n        /* \"#utility.yul\":12794:12800   */\n      dup10\n        /* \"#utility.yul\":12790:12807   */\n      and\n        /* \"#utility.yul\":12779:12788   */\n      dup3\n        /* \"#utility.yul\":12760:12808   */\n      tag_116\n      jump\t// in\n    tag_276:\n        /* \"#utility.yul\":12752:12758   */\n      dup4\n        /* \"#utility.yul\":12745:12809   */\n      sstore\n        /* \"#utility.yul\":12667:12823   */\n      pop\n        /* \"#utility.yul\":12644:12823   */\n    tag_275:\n        /* \"#utility.yul\":12869:12870   */\n      0x01\n        /* \"#utility.yul\":12865:12866   */\n      0x02\n        /* \"#utility.yul\":12857:12863   */\n      dup9\n        /* \"#utility.yul\":12853:12867   */\n      mul\n        /* \"#utility.yul\":12849:12871   */\n      add\n        /* \"#utility.yul\":12843:12847   */\n      dup9\n        /* \"#utility.yul\":12836:12872   */\n      sstore\n        /* \"#utility.yul\":12271:12882   */\n      pop\n      pop\n      pop\n        /* \"#utility.yul\":12234:13121   */\n    tag_267:\n      pop\n        /* \"#utility.yul\":11824:13127   */\n      pop\n      pop\n      pop\n        /* \"#utility.yul\":11732:13127   */\n      pop\n      pop\n      jump\t// out\n        /* \"#utility.yul\":13133:13281   */\n    tag_118:\n        /* \"#utility.yul\":13235:13246   */\n      0x00\n        /* \"#utility.yul\":13272:13275   */\n      dup2\n        /* \"#utility.yul\":13257:13275   */\n      swap1\n      pop\n        /* \"#utility.yul\":13133:13281   */\n      swap3\n      swap2\n      pop\n      pop\n      jump\t// out\n        /* \"#utility.yul\":13287:13677   */\n    tag_119:\n        /* \"#utility.yul\":13393:13396   */\n      0x00\n        /* \"#utility.yul\":13421:13460   */\n      tag_279\n        /* \"#utility.yul\":13454:13459   */\n      dup3\n        /* \"#utility.yul\":13421:13460   */\n      tag_81\n      jump\t// in\n    tag_279:\n        /* \"#utility.yul\":13476:13565   */\n      tag_280\n        /* \"#utility.yul\":13558:13564   */\n      dup2\n        /* \"#utility.yul\":13553:13556   */\n      dup6\n        /* \"#utility.yul\":13476:13565   */\n      tag_118\n      jump\t// in\n    tag_280:\n        /* \"#utility.yul\":13469:13565   */\n      swap4\n      pop\n        /* \"#utility.yul\":13574:13639   */\n      tag_281\n        /* \"#utility.yul\":13632:13638   */\n      dup2\n        /* \"#utility.yul\":13627:13630   */\n      dup6\n        /* \"#utility.yul\":13620:13624   */\n      0x20\n        /* \"#utility.yul\":13613:13618   */\n      dup7\n        /* \"#utility.yul\":13609:13625   */\n      add\n        /* \"#utility.yul\":13574:13639   */\n      tag_83\n      jump\t// in\n    tag_281:\n        /* \"#utility.yul\":13664:13670   */\n      dup1\n        /* \"#utility.yul\":13659:13662   */\n      dup5\n        /* \"#utility.yul\":13655:13671   */\n      add\n        /* \"#utility.yul\":13648:13671   */\n      swap2\n      pop\n        /* \"#utility.yul\":13397:13677   */\n      pop\n        /* \"#utility.yul\":13287:13677   */\n      swap3\n      swap2\n      pop\n      pop\n      jump\t// out\n        /* \"#utility.yul\":13683:13958   */\n    tag_52:\n        /* \"#utility.yul\":13815:13818   */\n      0x00\n        /* \"#utility.yul\":13837:13932   */\n      tag_283\n        /* \"#utility.yul\":13928:13931   */\n      dup3\n        /* \"#utility.yul\":13919:13925   */\n      dup5\n        /* \"#utility.yul\":13837:13932   */\n      tag_119\n      jump\t// in\n    tag_283:\n        /* \"#utility.yul\":13830:13932   */\n      swap2\n      pop\n        /* \"#utility.yul\":13949:13952   */\n      dup2\n        /* \"#utility.yul\":13942:13952   */\n      swap1\n      pop\n        /* \"#utility.yul\":13683:13958   */\n      swap3\n      swap2\n      pop\n      pop\n      jump\t// out\n        /* \"#utility.yul\":13964:14144   */\n    tag_61:\n        /* \"#utility.yul\":14012:14089   */\n      0x4e487b7100000000000000000000000000000000000000000000000000000000\n        /* \"#utility.yul\":14009:14010   */\n      0x00\n        /* \"#utility.yul\":14002:14090   */\n      mstore\n        /* \"#utility.yul\":14109:14113   */\n      0x32\n        /* \"#utility.yul\":14106:14107   */\n      0x04\n        /* \"#utility.yul\":14099:14114   */\n      mstore\n        /* \"#utility.yul\":14133:14137   */\n      0x24\n        /* \"#utility.yul\":14130:14131   */\n      0x00\n        /* \"#utility.yul\":14123:14138   */\n      revert\n        /* \"#utility.yul\":14174:15048   */\n    tag_120:\n        /* \"#utility.yul\":14277:14280   */\n      0x00\n        /* \"#utility.yul\":14314:14319   */\n      dup2\n        /* \"#utility.yul\":14308:14320   */\n      sload\n        /* \"#utility.yul\":14343:14379   */\n      tag_286\n        /* \"#utility.yul\":14369:14378   */\n      dup2\n        /* \"#utility.yul\":14343:14379   */\n      tag_42\n      jump\t// in\n    tag_286:\n        /* \"#utility.yul\":14395:14484   */\n      tag_287\n        /* \"#utility.yul\":14477:14483   */\n      dup2\n        /* \"#utility.yul\":14472:14475   */\n      dup7\n        /* \"#utility.yul\":14395:14484   */\n      tag_118\n      jump\t// in\n    tag_287:\n        /* \"#utility.yul\":14388:14484   */\n      swap5\n      pop\n        /* \"#utility.yul\":14515:14516   */\n      0x01\n        /* \"#utility.yul\":14504:14513   */\n      dup3\n        /* \"#utility.yul\":14500:14517   */\n      and\n        /* \"#utility.yul\":14531:14532   */\n      0x00\n        /* \"#utility.yul\":14526:14692   */\n      dup2\n      eq\n      tag_289\n      jumpi\n        /* \"#utility.yul\":14706:14707   */\n      0x01\n        /* \"#utility.yul\":14701:15042   */\n      dup2\n      eq\n      tag_290\n      jumpi\n        /* \"#utility.yul\":14493:15042   */\n      jump(tag_288)\n        /* \"#utility.yul\":14526:14692   */\n    tag_289:\n        /* \"#utility.yul\":14610:14614   */\n      0xff\n        /* \"#utility.yul\":14606:14615   */\n      not\n        /* \"#utility.yul\":14595:14604   */\n      dup4\n        /* \"#utility.yul\":14591:14616   */\n      and\n        /* \"#utility.yul\":14586:14589   */\n      dup7\n        /* \"#utility.yul\":14579:14617   */\n      mstore\n        /* \"#utility.yul\":14672:14678   */\n      dup2\n        /* \"#utility.yul\":14665:14679   */\n      iszero\n        /* \"#utility.yul\":14658:14680   */\n      iszero\n        /* \"#utility.yul\":14650:14656   */\n      dup3\n        /* \"#utility.yul\":14646:14681   */\n      mul\n        /* \"#utility.yul\":14641:14644   */\n      dup7\n        /* \"#utility.yul\":14637:14682   */\n      add\n        /* \"#utility.yul\":14630:14682   */\n      swap4\n      pop\n        /* \"#utility.yul\":14526:14692   */\n      jump(tag_288)\n        /* \"#utility.yul\":14701:15042   */\n    tag_290:\n        /* \"#utility.yul\":14768:14806   */\n      tag_291\n        /* \"#utility.yul\":14800:14805   */\n      dup6\n        /* \"#utility.yul\":14768:14806   */\n      tag_103\n      jump\t// in\n    tag_291:\n        /* \"#utility.yul\":14828:14829   */\n      0x00\n        /* \"#utility.yul\":14842:14996   */\n    tag_292:\n        /* \"#utility.yul\":14856:14862   */\n      dup4\n        /* \"#utility.yul\":14853:14854   */\n      dup2\n        /* \"#utility.yul\":14850:14863   */\n      lt\n        /* \"#utility.yul\":14842:14996   */\n      iszero\n      tag_294\n      jumpi\n        /* \"#utility.yul\":14930:14937   */\n      dup2\n        /* \"#utility.yul\":14924:14938   */\n      sload\n        /* \"#utility.yul\":14920:14921   */\n      dup2\n        /* \"#utility.yul\":14915:14918   */\n      dup10\n        /* \"#utility.yul\":14911:14922   */\n      add\n        /* \"#utility.yul\":14904:14939   */\n      mstore\n        /* \"#utility.yul\":14980:14981   */\n      0x01\n        /* \"#utility.yul\":14971:14978   */\n      dup3\n        /* \"#utility.yul\":14967:14982   */\n      add\n        /* \"#utility.yul\":14956:14982   */\n      swap2\n      pop\n        /* \"#utility.yul\":14878:14882   */\n      0x20\n        /* \"#utility.yul\":14875:14876   */\n      dup2\n        /* \"#utility.yul\":14871:14883   */\n      add\n        /* \"#utility.yul\":14866:14883   */\n      swap1\n      pop\n        /* \"#utility.yul\":14842:14996   */\n      jump(tag_292)\n    tag_294:\n        /* \"#utility.yul\":15025:15031   */\n      dup4\n        /* \"#utility.yul\":15020:15023   */\n      dup9\n        /* \"#utility.yul\":15016:15032   */\n      add\n        /* \"#utility.yul\":15009:15032   */\n      swap6\n      pop\n        /* \"#utility.yul\":14708:15042   */\n      pop\n      pop\n        /* \"#utility.yul\":14493:15042   */\n    tag_288:\n      pop\n        /* \"#utility.yul\":14281:15048   */\n      pop\n      pop\n        /* \"#utility.yul\":14174:15048   */\n      swap3\n      swap2\n      pop\n      pop\n      jump\t// out\n        /* \"#utility.yul\":15054:15323   */\n    tag_64:\n        /* \"#utility.yul\":15183:15186   */\n      0x00\n        /* \"#utility.yul\":15205:15297   */\n      tag_296\n        /* \"#utility.yul\":15293:15296   */\n      dup3\n        /* \"#utility.yul\":15284:15290   */\n      dup5\n        /* \"#utility.yul\":15205:15297   */\n      tag_120\n      jump\t// in\n    tag_296:\n        /* \"#utility.yul\":15198:15297   */\n      swap2\n      pop\n        /* \"#utility.yul\":15314:15317   */\n      dup2\n        /* \"#utility.yul\":15307:15317   */\n      swap1\n      pop\n        /* \"#utility.yul\":15054:15323   */\n      swap3\n      swap2\n      pop\n      pop\n      jump\t// out\n        /* \"#utility.yul\":15329:15509   */\n    tag_121:\n        /* \"#utility.yul\":15377:15454   */\n      0x4e487b7100000000000000000000000000000000000000000000000000000000\n        /* \"#utility.yul\":15374:15375   */\n      0x00\n        /* \"#utility.yul\":15367:15455   */\n      mstore\n        /* \"#utility.yul\":15474:15478   */\n      0x11\n        /* \"#utility.yul\":15471:15472   */\n      0x04\n        /* \"#utility.yul\":15464:15479   */\n      mstore\n        /* \"#utility.yul\":15498:15502   */\n      0x24\n        /* \"#utility.yul\":15495:15496   */\n      0x00\n        /* \"#utility.yul\":15488:15503   */\n      revert\n        /* \"#utility.yul\":15515:15748   */\n    tag_73:\n        /* \"#utility.yul\":15554:15557   */\n      0x00\n        /* \"#utility.yul\":15577:15601   */\n      tag_299\n        /* \"#utility.yul\":15595:15600   */\n      dup3\n        /* \"#utility.yul\":15577:15601   */\n      tag_77\n      jump\t// in\n    tag_299:\n        /* \"#utility.yul\":15568:15601   */\n      swap2\n      pop\n        /* \"#utility.yul\":15623:15689   */\n      0xffffffffffffffffffffffffffffffffffffffffffffffffffffffffffffffff\n        /* \"#utility.yul\":15616:15621   */\n      dup3\n        /* \"#utility.yul\":15613:15690   */\n      sub\n        /* \"#utility.yul\":15610:15713   */\n      tag_300\n      jumpi\n        /* \"#utility.yul\":15693:15711   */\n      tag_301\n      tag_121\n      jump\t// in\n    tag_301:\n        /* \"#utility.yul\":15610:15713   */\n    tag_300:\n        /* \"#utility.yul\":15740:15741   */\n      0x01\n        /* \"#utility.yul\":15733:15738   */\n      dup3\n        /* \"#utility.yul\":15729:15742   */\n      add\n        /* \"#utility.yul\":15722:15742   */\n      swap1\n      pop\n        /* \"#utility.yul\":15515:15748   */\n      swap2\n      swap1\n      pop\n      jump\t// out\n\n    auxdata: 0xa26469706673582212207f89c6e2c1e0bd342a66362030d53ae64d958c36657eb8cc9fa2cf1d12d5578664736f6c63430008100033\n}\n",
				"bytecode": {
					"linkReferences": {},
					"object": "608060405234801561001057600080fd5b50336000806101000a81548173ffffffffffffffffffffffffffffffffffffffff021916908373ffffffffffffffffffffffffffffffffffffffff160217905550610df5806100606000396000f3fe608060405234801561001057600080fd5b50600436106100625760003560e01c80631116fd04146100675780634aa875cd146100995780634e9e5624146100c957806372c318aa146100e55780638da5cb5b146101155780639993fb7514610133575b600080fd5b610081600480360381019061007c9190610522565b610163565b60405161009093929190610609565b60405180910390f35b6100b360048036038101906100ae919061077c565b610232565b6040516100c091906107c5565b60405180910390f35b6100e360048036038101906100de919061080c565b610260565b005b6100ff60048036038101906100fa919061087b565b610316565b60405161010c91906108d7565b60405180910390f35b61011d61047e565b60405161012a9190610933565b60405180910390f35b61014d6004803603810190610148919061077c565b6104a2565b60405161015a91906108d7565b60405180910390f35b6007818154811061017357600080fd5b906000526020600020906003020160009150905080600001549080600101805461019c9061097d565b80601f01602080910402602001604051908101604052809291908181526020018280546101c89061097d565b80156102155780601f106101ea57610100808354040283529160200191610215565b820191906000526020600020905b8154815290600101906020018083116101f857829003601f168201915b5050505050908060020160009054906101000a900460ff16905083565b6005818051602081018201805184825260208301602085012081835280955050505050506000915090505481565b6007604051806060016040528084815260200185815260200183151581525090806001815401808255809150506001900390600052602060002090600302016000909190919091506000820151816000015560208201518160010190816102c79190610b5a565b5060408201518160020160006101000a81548160ff0219169083151502179055505050816005846040516102fb9190610c68565b90815260200160405180910390208190555060009050505050565b6000816006846040516103299190610c68565b908152602001604051809103902060006101000a81548160ff02191690831515021790555060006004819055505b600780549050600454101561047757826040516020016103779190610c68565b604051602081830303815290604052805190602001206007600454815481106103a3576103a2610c7f565b5b90600052602060002090600302016001016040516020016103c49190610d31565b604051602081830303815290604052805190602001200361045a57816007600454815481106103f6576103f5610c7f565b5b906000526020600020906003020160020160006101000a81548160ff02191690831515021790555060076004548154811061043457610433610c7f565b5b906000526020600020906003020160020160009054906101000a900460ff169050610478565b6004600081548092919061046d90610d77565b9190505550610357565b5b92915050565b60008054906101000a900473ffffffffffffffffffffffffffffffffffffffff1681565b6006818051602081018201805184825260208301602085012081835280955050505050506000915054906101000a900460ff1681565b6000604051905090565b600080fd5b600080fd5b6000819050919050565b6104ff816104ec565b811461050a57600080fd5b50565b60008135905061051c816104f6565b92915050565b600060208284031215610538576105376104e2565b5b60006105468482850161050d565b91505092915050565b610558816104ec565b82525050565b600081519050919050565b600082825260208201905092915050565b60005b8381101561059857808201518184015260208101905061057d565b60008484015250505050565b6000601f19601f8301169050919050565b60006105c08261055e565b6105ca8185610569565b93506105da81856020860161057a565b6105e3816105a4565b840191505092915050565b60008115159050919050565b610603816105ee565b82525050565b600060608201905061061e600083018661054f565b818103602083015261063081856105b5565b905061063f60408301846105fa565b949350505050565b600080fd5b600080fd5b7f4e487b7100000000000000000000000000000000000000000000000000000000600052604160045260246000fd5b610689826105a4565b810181811067ffffffffffffffff821117156106a8576106a7610651565b5b80604052505050565b60006106bb6104d8565b90506106c78282610680565b919050565b600067ffffffffffffffff8211156106e7576106e6610651565b5b6106f0826105a4565b9050602081019050919050565b82818337600083830152505050565b600061071f61071a846106cc565b6106b1565b90508281526020810184848401111561073b5761073a61064c565b5b6107468482856106fd565b509392505050565b600082601f83011261076357610762610647565b5b813561077384826020860161070c565b91505092915050565b600060208284031215610792576107916104e2565b5b600082013567ffffffffffffffff8111156107b0576107af6104e7565b5b6107bc8482850161074e565b91505092915050565b60006020820190506107da600083018461054f565b92915050565b6107e9816105ee565b81146107f457600080fd5b50565b600081359050610806816107e0565b92915050565b600080600060608486031215610825576108246104e2565b5b600084013567ffffffffffffffff811115610843576108426104e7565b5b61084f8682870161074e565b93505060206108608682870161050d565b9250506040610871868287016107f7565b9150509250925092565b60008060408385031215610892576108916104e2565b5b600083013567ffffffffffffffff8111156108b0576108af6104e7565b5b6108bc8582860161074e565b92505060206108cd858286016107f7565b9150509250929050565b60006020820190506108ec60008301846105fa565b92915050565b600073ffffffffffffffffffffffffffffffffffffffff82169050919050565b600061091d826108f2565b9050919050565b61092d81610912565b82525050565b60006020820190506109486000830184610924565b92915050565b7f4e487b7100000000000000000000000000000000000000000000000000000000600052602260045260246000fd5b6000600282049050600182168061099557607f821691505b6020821081036109a8576109a761094e565b5b50919050565b60008190508160005260206000209050919050565b60006020601f8301049050919050565b600082821b905092915050565b600060088302610a107fffffffffffffffffffffffffffffffffffffffffffffffffffffffffffffffff826109d3565b610a1a86836109d3565b95508019841693508086168417925050509392505050565b6000819050919050565b6000610a57610a52610a4d846104ec565b610a32565b6104ec565b9050919050565b6000819050919050565b610a7183610a3c565b610a85610a7d82610a5e565b8484546109e0565b825550505050565b600090565b610a9a610a8d565b610aa5818484610a68565b505050565b5b81811015610ac957610abe600082610a92565b600181019050610aab565b5050565b601f821115610b0e57610adf816109ae565b610ae8846109c3565b81016020851015610af7578190505b610b0b610b03856109c3565b830182610aaa565b50505b505050565b600082821c905092915050565b6000610b3160001984600802610b13565b1980831691505092915050565b6000610b4a8383610b20565b9150826002028217905092915050565b610b638261055e565b67ffffffffffffffff811115610b7c57610b7b610651565b5b610b86825461097d565b610b91828285610acd565b600060209050601f831160018114610bc45760008415610bb2578287015190505b610bbc8582610b3e565b865550610c24565b601f198416610bd2866109ae565b60005b82811015610bfa57848901518255600182019150602085019450602081019050610bd5565b86831015610c175784890151610c13601f891682610b20565b8355505b6001600288020188555050505b505050505050565b600081905092915050565b6000610c428261055e565b610c4c8185610c2c565b9350610c5c81856020860161057a565b80840191505092915050565b6000610c748284610c37565b915081905092915050565b7f4e487b7100000000000000000000000000000000000000000000000000000000600052603260045260246000fd5b60008154610cbb8161097d565b610cc58186610c2c565b94506001821660008114610ce05760018114610cf557610d28565b60ff1983168652811515820286019350610d28565b610cfe856109ae565b60005b83811015610d2057815481890152600182019150602081019050610d01565b838801955050505b50505092915050565b6000610d3d8284610cae565b915081905092915050565b7f4e487b7100000000000000000000000000000000000000000000000000000000600052601160045260246000fd5b6000610d82826104ec565b91507fffffffffffffffffffffffffffffffffffffffffffffffffffffffffffffffff8203610db457610db3610d48565b5b60018201905091905056fea26469706673582212207f89c6e2c1e0bd342a66362030d53ae64d958c36657eb8cc9fa2cf1d12d5578664736f6c63430008100033",
					"opcodes": "PUSH1 0x80 PUSH1 0x40 MSTORE CALLVALUE DUP1 ISZERO PUSH2 0x10 JUMPI PUSH1 0x0 DUP1 REVERT JUMPDEST POP CALLER PUSH1 0x0 DUP1 PUSH2 0x100 EXP DUP2 SLOAD DUP2 PUSH20 0xFFFFFFFFFFFFFFFFFFFFFFFFFFFFFFFFFFFFFFFF MUL NOT AND SWAP1 DUP4 PUSH20 0xFFFFFFFFFFFFFFFFFFFFFFFFFFFFFFFFFFFFFFFF AND MUL OR SWAP1 SSTORE POP PUSH2 0xDF5 DUP1 PUSH2 0x60 PUSH1 0x0 CODECOPY PUSH1 0x0 RETURN INVALID PUSH1 0x80 PUSH1 0x40 MSTORE CALLVALUE DUP1 ISZERO PUSH2 0x10 JUMPI PUSH1 0x0 DUP1 REVERT JUMPDEST POP PUSH1 0x4 CALLDATASIZE LT PUSH2 0x62 JUMPI PUSH1 0x0 CALLDATALOAD PUSH1 0xE0 SHR DUP1 PUSH4 0x1116FD04 EQ PUSH2 0x67 JUMPI DUP1 PUSH4 0x4AA875CD EQ PUSH2 0x99 JUMPI DUP1 PUSH4 0x4E9E5624 EQ PUSH2 0xC9 JUMPI DUP1 PUSH4 0x72C318AA EQ PUSH2 0xE5 JUMPI DUP1 PUSH4 0x8DA5CB5B EQ PUSH2 0x115 JUMPI DUP1 PUSH4 0x9993FB75 EQ PUSH2 0x133 JUMPI JUMPDEST PUSH1 0x0 DUP1 REVERT JUMPDEST PUSH2 0x81 PUSH1 0x4 DUP1 CALLDATASIZE SUB DUP2 ADD SWAP1 PUSH2 0x7C SWAP2 SWAP1 PUSH2 0x522 JUMP JUMPDEST PUSH2 0x163 JUMP JUMPDEST PUSH1 0x40 MLOAD PUSH2 0x90 SWAP4 SWAP3 SWAP2 SWAP1 PUSH2 0x609 JUMP JUMPDEST PUSH1 0x40 MLOAD DUP1 SWAP2 SUB SWAP1 RETURN JUMPDEST PUSH2 0xB3 PUSH1 0x4 DUP1 CALLDATASIZE SUB DUP2 ADD SWAP1 PUSH2 0xAE SWAP2 SWAP1 PUSH2 0x77C JUMP JUMPDEST PUSH2 0x232 JUMP JUMPDEST PUSH1 0x40 MLOAD PUSH2 0xC0 SWAP2 SWAP1 PUSH2 0x7C5 JUMP JUMPDEST PUSH1 0x40 MLOAD DUP1 SWAP2 SUB SWAP1 RETURN JUMPDEST PUSH2 0xE3 PUSH1 0x4 DUP1 CALLDATASIZE SUB DUP2 ADD SWAP1 PUSH2 0xDE SWAP2 SWAP1 PUSH2 0x80C JUMP JUMPDEST PUSH2 0x260 JUMP JUMPDEST STOP JUMPDEST PUSH2 0xFF PUSH1 0x4 DUP1 CALLDATASIZE SUB DUP2 ADD SWAP1 PUSH2 0xFA SWAP2 SWAP1 PUSH2 0x87B JUMP JUMPDEST PUSH2 0x316 JUMP JUMPDEST PUSH1 0x40 MLOAD PUSH2 0x10C SWAP2 SWAP1 PUSH2 0x8D7 JUMP JUMPDEST PUSH1 0x40 MLOAD DUP1 SWAP2 SUB SWAP1 RETURN JUMPDEST PUSH2 0x11D PUSH2 0x47E JUMP JUMPDEST PUSH1 0x40 MLOAD PUSH2 0x12A SWAP2 SWAP1 PUSH2 0x933 JUMP JUMPDEST PUSH1 0x40 MLOAD DUP1 SWAP2 SUB SWAP1 RETURN JUMPDEST PUSH2 0x14D PUSH1 0x4 DUP1 CALLDATASIZE SUB DUP2 ADD SWAP1 PUSH2 0x148 SWAP2 SWAP1 PUSH2 0x77C JUMP JUMPDEST PUSH2 0x4A2 JUMP JUMPDEST PUSH1 0x40 MLOAD PUSH2 0x15A SWAP2 SWAP1 PUSH2 0x8D7 JUMP JUMPDEST PUSH1 0x40 MLOAD DUP1 SWAP2 SUB SWAP1 RETURN JUMPDEST PUSH1 0x7 DUP2 DUP2 SLOAD DUP2 LT PUSH2 0x173 JUMPI PUSH1 0x0 DUP1 REVERT JUMPDEST SWAP1 PUSH1 0x0 MSTORE PUSH1 0x20 PUSH1 0x0 KECCAK256 SWAP1 PUSH1 0x3 MUL ADD PUSH1 0x0 SWAP2 POP SWAP1 POP DUP1 PUSH1 0x0 ADD SLOAD SWAP1 DUP1 PUSH1 0x1 ADD DUP1 SLOAD PUSH2 0x19C SWAP1 PUSH2 0x97D JUMP JUMPDEST DUP1 PUSH1 0x1F ADD PUSH1 0x20 DUP1 SWAP2 DIV MUL PUSH1 0x20 ADD PUSH1 0x40 MLOAD SWAP1 DUP2 ADD PUSH1 0x40 MSTORE DUP1 SWAP3 SWAP2 SWAP1 DUP2 DUP2 MSTORE PUSH1 0x20 ADD DUP3 DUP1 SLOAD PUSH2 0x1C8 SWAP1 PUSH2 0x97D JUMP JUMPDEST DUP1 ISZERO PUSH2 0x215 JUMPI DUP1 PUSH1 0x1F LT PUSH2 0x1EA JUMPI PUSH2 0x100 DUP1 DUP4 SLOAD DIV MUL DUP4 MSTORE SWAP2 PUSH1 0x20 ADD SWAP2 PUSH2 0x215 JUMP JUMPDEST DUP3 ADD SWAP2 SWAP1 PUSH1 0x0 MSTORE PUSH1 0x20 PUSH1 0x0 KECCAK256 SWAP1 JUMPDEST DUP2 SLOAD DUP2 MSTORE SWAP1 PUSH1 0x1 ADD SWAP1 PUSH1 0x20 ADD DUP1 DUP4 GT PUSH2 0x1F8 JUMPI DUP3 SWAP1 SUB PUSH1 0x1F AND DUP3 ADD SWAP2 JUMPDEST POP POP POP POP POP SWAP1 DUP1 PUSH1 0x2 ADD PUSH1 0x0 SWAP1 SLOAD SWAP1 PUSH2 0x100 EXP SWAP1 DIV PUSH1 0xFF AND SWAP1 POP DUP4 JUMP JUMPDEST PUSH1 0x5 DUP2 DUP1 MLOAD PUSH1 0x20 DUP2 ADD DUP3 ADD DUP1 MLOAD DUP5 DUP3 MSTORE PUSH1 0x20 DUP4 ADD PUSH1 0x20 DUP6 ADD KECCAK256 DUP2 DUP4 MSTORE DUP1 SWAP6 POP POP POP POP POP POP PUSH1 0x0 SWAP2 POP SWAP1 POP SLOAD DUP2 JUMP JUMPDEST PUSH1 0x7 PUSH1 0x40 MLOAD DUP1 PUSH1 0x60 ADD PUSH1 0x40 MSTORE DUP1 DUP5 DUP2 MSTORE PUSH1 0x20 ADD DUP6 DUP2 MSTORE PUSH1 0x20 ADD DUP4 ISZERO ISZERO DUP2 MSTORE POP SWAP1 DUP1 PUSH1 0x1 DUP2 SLOAD ADD DUP1 DUP3 SSTORE DUP1 SWAP2 POP POP PUSH1 0x1 SWAP1 SUB SWAP1 PUSH1 0x0 MSTORE PUSH1 0x20 PUSH1 0x0 KECCAK256 SWAP1 PUSH1 0x3 MUL ADD PUSH1 0x0 SWAP1 SWAP2 SWAP1 SWAP2 SWAP1 SWAP2 POP PUSH1 0x0 DUP3 ADD MLOAD DUP2 PUSH1 0x0 ADD SSTORE PUSH1 0x20 DUP3 ADD MLOAD DUP2 PUSH1 0x1 ADD SWAP1 DUP2 PUSH2 0x2C7 SWAP2 SWAP1 PUSH2 0xB5A JUMP JUMPDEST POP PUSH1 0x40 DUP3 ADD MLOAD DUP2 PUSH1 0x2 ADD PUSH1 0x0 PUSH2 0x100 EXP DUP2 SLOAD DUP2 PUSH1 0xFF MUL NOT AND SWAP1 DUP4 ISZERO ISZERO MUL OR SWAP1 SSTORE POP POP POP DUP2 PUSH1 0x5 DUP5 PUSH1 0x40 MLOAD PUSH2 0x2FB SWAP2 SWAP1 PUSH2 0xC68 JUMP JUMPDEST SWAP1 DUP2 MSTORE PUSH1 0x20 ADD PUSH1 0x40 MLOAD DUP1 SWAP2 SUB SWAP1 KECCAK256 DUP2 SWAP1 SSTORE POP PUSH1 0x0 SWAP1 POP POP POP POP JUMP JUMPDEST PUSH1 0x0 DUP2 PUSH1 0x6 DUP5 PUSH1 0x40 MLOAD PUSH2 0x329 SWAP2 SWAP1 PUSH2 0xC68 JUMP JUMPDEST SWAP1 DUP2 MSTORE PUSH1 0x20 ADD PUSH1 0x40 MLOAD DUP1 SWAP2 SUB SWAP1 KECCAK256 PUSH1 0x0 PUSH2 0x100 EXP DUP2 SLOAD DUP2 PUSH1 0xFF MUL NOT AND SWAP1 DUP4 ISZERO ISZERO MUL OR SWAP1 SSTORE POP PUSH1 0x0 PUSH1 0x4 DUP2 SWAP1 SSTORE POP JUMPDEST PUSH1 0x7 DUP1 SLOAD SWAP1 POP PUSH1 0x4 SLOAD LT ISZERO PUSH2 0x477 JUMPI DUP3 PUSH1 0x40 MLOAD PUSH1 0x20 ADD PUSH2 0x377 SWAP2 SWAP1 PUSH2 0xC68 JUMP JUMPDEST PUSH1 0x40 MLOAD PUSH1 0x20 DUP2 DUP4 SUB SUB DUP2 MSTORE SWAP1 PUSH1 0x40 MSTORE DUP1 MLOAD SWAP1 PUSH1 0x20 ADD KECCAK256 PUSH1 0x7 PUSH1 0x4 SLOAD DUP2 SLOAD DUP2 LT PUSH2 0x3A3 JUMPI PUSH2 0x3A2 PUSH2 0xC7F JUMP JUMPDEST JUMPDEST SWAP1 PUSH1 0x0 MSTORE PUSH1 0x20 PUSH1 0x0 KECCAK256 SWAP1 PUSH1 0x3 MUL ADD PUSH1 0x1 ADD PUSH1 0x40 MLOAD PUSH1 0x20 ADD PUSH2 0x3C4 SWAP2 SWAP1 PUSH2 0xD31 JUMP JUMPDEST PUSH1 0x40 MLOAD PUSH1 0x20 DUP2 DUP4 SUB SUB DUP2 MSTORE SWAP1 PUSH1 0x40 MSTORE DUP1 MLOAD SWAP1 PUSH1 0x20 ADD KECCAK256 SUB PUSH2 0x45A JUMPI DUP2 PUSH1 0x7 PUSH1 0x4 SLOAD DUP2 SLOAD DUP2 LT PUSH2 0x3F6 JUMPI PUSH2 0x3F5 PUSH2 0xC7F JUMP JUMPDEST JUMPDEST SWAP1 PUSH1 0x0 MSTORE PUSH1 0x20 PUSH1 0x0 KECCAK256 SWAP1 PUSH1 0x3 MUL ADD PUSH1 0x2 ADD PUSH1 0x0 PUSH2 0x100 EXP DUP2 SLOAD DUP2 PUSH1 0xFF MUL NOT AND SWAP1 DUP4 ISZERO ISZERO MUL OR SWAP1 SSTORE POP PUSH1 0x7 PUSH1 0x4 SLOAD DUP2 SLOAD DUP2 LT PUSH2 0x434 JUMPI PUSH2 0x433 PUSH2 0xC7F JUMP JUMPDEST JUMPDEST SWAP1 PUSH1 0x0 MSTORE PUSH1 0x20 PUSH1 0x0 KECCAK256 SWAP1 PUSH1 0x3 MUL ADD PUSH1 0x2 ADD PUSH1 0x0 SWAP1 SLOAD SWAP1 PUSH2 0x100 EXP SWAP1 DIV PUSH1 0xFF AND SWAP1 POP PUSH2 0x478 JUMP JUMPDEST PUSH1 0x4 PUSH1 0x0 DUP2 SLOAD DUP1 SWAP3 SWAP2 SWAP1 PUSH2 0x46D SWAP1 PUSH2 0xD77 JUMP JUMPDEST SWAP2 SWAP1 POP SSTORE POP PUSH2 0x357 JUMP JUMPDEST JUMPDEST SWAP3 SWAP2 POP POP JUMP JUMPDEST PUSH1 0x0 DUP1 SLOAD SWAP1 PUSH2 0x100 EXP SWAP1 DIV PUSH20 0xFFFFFFFFFFFFFFFFFFFFFFFFFFFFFFFFFFFFFFFF AND DUP2 JUMP JUMPDEST PUSH1 0x6 DUP2 DUP1 MLOAD PUSH1 0x20 DUP2 ADD DUP3 ADD DUP1 MLOAD DUP5 DUP3 MSTORE PUSH1 0x20 DUP4 ADD PUSH1 0x20 DUP6 ADD KECCAK256 DUP2 DUP4 MSTORE DUP1 SWAP6 POP POP POP POP POP POP PUSH1 0x0 SWAP2 POP SLOAD SWAP1 PUSH2 0x100 EXP SWAP1 DIV PUSH1 0xFF AND DUP2 JUMP JUMPDEST PUSH1 0x0 PUSH1 0x40 MLOAD SWAP1 POP SWAP1 JUMP JUMPDEST PUSH1 0x0 DUP1 REVERT JUMPDEST PUSH1 0x0 DUP1 REVERT JUMPDEST PUSH1 0x0 DUP2 SWAP1 POP SWAP2 SWAP1 POP JUMP JUMPDEST PUSH2 0x4FF DUP2 PUSH2 0x4EC JUMP JUMPDEST DUP2 EQ PUSH2 0x50A JUMPI PUSH1 0x0 DUP1 REVERT JUMPDEST POP JUMP JUMPDEST PUSH1 0x0 DUP2 CALLDATALOAD SWAP1 POP PUSH2 0x51C DUP2 PUSH2 0x4F6 JUMP JUMPDEST SWAP3 SWAP2 POP POP JUMP JUMPDEST PUSH1 0x0 PUSH1 0x20 DUP3 DUP5 SUB SLT ISZERO PUSH2 0x538 JUMPI PUSH2 0x537 PUSH2 0x4E2 JUMP JUMPDEST JUMPDEST PUSH1 0x0 PUSH2 0x546 DUP5 DUP3 DUP6 ADD PUSH2 0x50D JUMP JUMPDEST SWAP2 POP POP SWAP3 SWAP2 POP POP JUMP JUMPDEST PUSH2 0x558 DUP2 PUSH2 0x4EC JUMP JUMPDEST DUP3 MSTORE POP POP JUMP JUMPDEST PUSH1 0x0 DUP2 MLOAD SWAP1 POP SWAP2 SWAP1 POP JUMP JUMPDEST PUSH1 0x0 DUP3 DUP3 MSTORE PUSH1 0x20 DUP3 ADD SWAP1 POP SWAP3 SWAP2 POP POP JUMP JUMPDEST PUSH1 0x0 JUMPDEST DUP4 DUP2 LT ISZERO PUSH2 0x598 JUMPI DUP1 DUP3 ADD MLOAD DUP2 DUP5 ADD MSTORE PUSH1 0x20 DUP2 ADD SWAP1 POP PUSH2 0x57D JUMP JUMPDEST PUSH1 0x0 DUP5 DUP5 ADD MSTORE POP POP POP POP JUMP JUMPDEST PUSH1 0x0 PUSH1 0x1F NOT PUSH1 0x1F DUP4 ADD AND SWAP1 POP SWAP2 SWAP1 POP JUMP JUMPDEST PUSH1 0x0 PUSH2 0x5C0 DUP3 PUSH2 0x55E JUMP JUMPDEST PUSH2 0x5CA DUP2 DUP6 PUSH2 0x569 JUMP JUMPDEST SWAP4 POP PUSH2 0x5DA DUP2 DUP6 PUSH1 0x20 DUP7 ADD PUSH2 0x57A JUMP JUMPDEST PUSH2 0x5E3 DUP2 PUSH2 0x5A4 JUMP JUMPDEST DUP5 ADD SWAP2 POP POP SWAP3 SWAP2 POP POP JUMP JUMPDEST PUSH1 0x0 DUP2 ISZERO ISZERO SWAP1 POP SWAP2 SWAP1 POP JUMP JUMPDEST PUSH2 0x603 DUP2 PUSH2 0x5EE JUMP JUMPDEST DUP3 MSTORE POP POP JUMP JUMPDEST PUSH1 0x0 PUSH1 0x60 DUP3 ADD SWAP1 POP PUSH2 0x61E PUSH1 0x0 DUP4 ADD DUP7 PUSH2 0x54F JUMP JUMPDEST DUP2 DUP2 SUB PUSH1 0x20 DUP4 ADD MSTORE PUSH2 0x630 DUP2 DUP6 PUSH2 0x5B5 JUMP JUMPDEST SWAP1 POP PUSH2 0x63F PUSH1 0x40 DUP4 ADD DUP5 PUSH2 0x5FA JUMP JUMPDEST SWAP5 SWAP4 POP POP POP POP JUMP JUMPDEST PUSH1 0x0 DUP1 REVERT JUMPDEST PUSH1 0x0 DUP1 REVERT JUMPDEST PUSH32 0x4E487B7100000000000000000000000000000000000000000000000000000000 PUSH1 0x0 MSTORE PUSH1 0x41 PUSH1 0x4 MSTORE PUSH1 0x24 PUSH1 0x0 REVERT JUMPDEST PUSH2 0x689 DUP3 PUSH2 0x5A4 JUMP JUMPDEST DUP2 ADD DUP2 DUP2 LT PUSH8 0xFFFFFFFFFFFFFFFF DUP3 GT OR ISZERO PUSH2 0x6A8 JUMPI PUSH2 0x6A7 PUSH2 0x651 JUMP JUMPDEST JUMPDEST DUP1 PUSH1 0x40 MSTORE POP POP POP JUMP JUMPDEST PUSH1 0x0 PUSH2 0x6BB PUSH2 0x4D8 JUMP JUMPDEST SWAP1 POP PUSH2 0x6C7 DUP3 DUP3 PUSH2 0x680 JUMP JUMPDEST SWAP2 SWAP1 POP JUMP JUMPDEST PUSH1 0x0 PUSH8 0xFFFFFFFFFFFFFFFF DUP3 GT ISZERO PUSH2 0x6E7 JUMPI PUSH2 0x6E6 PUSH2 0x651 JUMP JUMPDEST JUMPDEST PUSH2 0x6F0 DUP3 PUSH2 0x5A4 JUMP JUMPDEST SWAP1 POP PUSH1 0x20 DUP2 ADD SWAP1 POP SWAP2 SWAP1 POP JUMP JUMPDEST DUP3 DUP2 DUP4 CALLDATACOPY PUSH1 0x0 DUP4 DUP4 ADD MSTORE POP POP POP JUMP JUMPDEST PUSH1 0x0 PUSH2 0x71F PUSH2 0x71A DUP5 PUSH2 0x6CC JUMP JUMPDEST PUSH2 0x6B1 JUMP JUMPDEST SWAP1 POP DUP3 DUP2 MSTORE PUSH1 0x20 DUP2 ADD DUP5 DUP5 DUP5 ADD GT ISZERO PUSH2 0x73B JUMPI PUSH2 0x73A PUSH2 0x64C JUMP JUMPDEST JUMPDEST PUSH2 0x746 DUP5 DUP3 DUP6 PUSH2 0x6FD JUMP JUMPDEST POP SWAP4 SWAP3 POP POP POP JUMP JUMPDEST PUSH1 0x0 DUP3 PUSH1 0x1F DUP4 ADD SLT PUSH2 0x763 JUMPI PUSH2 0x762 PUSH2 0x647 JUMP JUMPDEST JUMPDEST DUP2 CALLDATALOAD PUSH2 0x773 DUP5 DUP3 PUSH1 0x20 DUP7 ADD PUSH2 0x70C JUMP JUMPDEST SWAP2 POP POP SWAP3 SWAP2 POP POP JUMP JUMPDEST PUSH1 0x0 PUSH1 0x20 DUP3 DUP5 SUB SLT ISZERO PUSH2 0x792 JUMPI PUSH2 0x791 PUSH2 0x4E2 JUMP JUMPDEST JUMPDEST PUSH1 0x0 DUP3 ADD CALLDATALOAD PUSH8 0xFFFFFFFFFFFFFFFF DUP2 GT ISZERO PUSH2 0x7B0 JUMPI PUSH2 0x7AF PUSH2 0x4E7 JUMP JUMPDEST JUMPDEST PUSH2 0x7BC DUP5 DUP3 DUP6 ADD PUSH2 0x74E JUMP JUMPDEST SWAP2 POP POP SWAP3 SWAP2 POP POP JUMP JUMPDEST PUSH1 0x0 PUSH1 0x20 DUP3 ADD SWAP1 POP PUSH2 0x7DA PUSH1 0x0 DUP4 ADD DUP5 PUSH2 0x54F JUMP JUMPDEST SWAP3 SWAP2 POP POP JUMP JUMPDEST PUSH2 0x7E9 DUP2 PUSH2 0x5EE JUMP JUMPDEST DUP2 EQ PUSH2 0x7F4 JUMPI PUSH1 0x0 DUP1 REVERT JUMPDEST POP JUMP JUMPDEST PUSH1 0x0 DUP2 CALLDATALOAD SWAP1 POP PUSH2 0x806 DUP2 PUSH2 0x7E0 JUMP JUMPDEST SWAP3 SWAP2 POP POP JUMP JUMPDEST PUSH1 0x0 DUP1 PUSH1 0x0 PUSH1 0x60 DUP5 DUP7 SUB SLT ISZERO PUSH2 0x825 JUMPI PUSH2 0x824 PUSH2 0x4E2 JUMP JUMPDEST JUMPDEST PUSH1 0x0 DUP5 ADD CALLDATALOAD PUSH8 0xFFFFFFFFFFFFFFFF DUP2 GT ISZERO PUSH2 0x843 JUMPI PUSH2 0x842 PUSH2 0x4E7 JUMP JUMPDEST JUMPDEST PUSH2 0x84F DUP7 DUP3 DUP8 ADD PUSH2 0x74E JUMP JUMPDEST SWAP4 POP POP PUSH1 0x20 PUSH2 0x860 DUP7 DUP3 DUP8 ADD PUSH2 0x50D JUMP JUMPDEST SWAP3 POP POP PUSH1 0x40 PUSH2 0x871 DUP7 DUP3 DUP8 ADD PUSH2 0x7F7 JUMP JUMPDEST SWAP2 POP POP SWAP3 POP SWAP3 POP SWAP3 JUMP JUMPDEST PUSH1 0x0 DUP1 PUSH1 0x40 DUP4 DUP6 SUB SLT ISZERO PUSH2 0x892 JUMPI PUSH2 0x891 PUSH2 0x4E2 JUMP JUMPDEST JUMPDEST PUSH1 0x0 DUP4 ADD CALLDATALOAD PUSH8 0xFFFFFFFFFFFFFFFF DUP2 GT ISZERO PUSH2 0x8B0 JUMPI PUSH2 0x8AF PUSH2 0x4E7 JUMP JUMPDEST JUMPDEST PUSH2 0x8BC DUP6 DUP3 DUP7 ADD PUSH2 0x74E JUMP JUMPDEST SWAP3 POP POP PUSH1 0x20 PUSH2 0x8CD DUP6 DUP3 DUP7 ADD PUSH2 0x7F7 JUMP JUMPDEST SWAP2 POP POP SWAP3 POP SWAP3 SWAP1 POP JUMP JUMPDEST PUSH1 0x0 PUSH1 0x20 DUP3 ADD SWAP1 POP PUSH2 0x8EC PUSH1 0x0 DUP4 ADD DUP5 PUSH2 0x5FA JUMP JUMPDEST SWAP3 SWAP2 POP POP JUMP JUMPDEST PUSH1 0x0 PUSH20 0xFFFFFFFFFFFFFFFFFFFFFFFFFFFFFFFFFFFFFFFF DUP3 AND SWAP1 POP SWAP2 SWAP1 POP JUMP JUMPDEST PUSH1 0x0 PUSH2 0x91D DUP3 PUSH2 0x8F2 JUMP JUMPDEST SWAP1 POP SWAP2 SWAP1 POP JUMP JUMPDEST PUSH2 0x92D DUP2 PUSH2 0x912 JUMP JUMPDEST DUP3 MSTORE POP POP JUMP JUMPDEST PUSH1 0x0 PUSH1 0x20 DUP3 ADD SWAP1 POP PUSH2 0x948 PUSH1 0x0 DUP4 ADD DUP5 PUSH2 0x924 JUMP JUMPDEST SWAP3 SWAP2 POP POP JUMP JUMPDEST PUSH32 0x4E487B7100000000000000000000000000000000000000000000000000000000 PUSH1 0x0 MSTORE PUSH1 0x22 PUSH1 0x4 MSTORE PUSH1 0x24 PUSH1 0x0 REVERT JUMPDEST PUSH1 0x0 PUSH1 0x2 DUP3 DIV SWAP1 POP PUSH1 0x1 DUP3 AND DUP1 PUSH2 0x995 JUMPI PUSH1 0x7F DUP3 AND SWAP2 POP JUMPDEST PUSH1 0x20 DUP3 LT DUP2 SUB PUSH2 0x9A8 JUMPI PUSH2 0x9A7 PUSH2 0x94E JUMP JUMPDEST JUMPDEST POP SWAP2 SWAP1 POP JUMP JUMPDEST PUSH1 0x0 DUP2 SWAP1 POP DUP2 PUSH1 0x0 MSTORE PUSH1 0x20 PUSH1 0x0 KECCAK256 SWAP1 POP SWAP2 SWAP1 POP JUMP JUMPDEST PUSH1 0x0 PUSH1 0x20 PUSH1 0x1F DUP4 ADD DIV SWAP1 POP SWAP2 SWAP1 POP JUMP JUMPDEST PUSH1 0x0 DUP3 DUP3 SHL SWAP1 POP SWAP3 SWAP2 POP POP JUMP JUMPDEST PUSH1 0x0 PUSH1 0x8 DUP4 MUL PUSH2 0xA10 PUSH32 0xFFFFFFFFFFFFFFFFFFFFFFFFFFFFFFFFFFFFFFFFFFFFFFFFFFFFFFFFFFFFFFFF DUP3 PUSH2 0x9D3 JUMP JUMPDEST PUSH2 0xA1A DUP7 DUP4 PUSH2 0x9D3 JUMP JUMPDEST SWAP6 POP DUP1 NOT DUP5 AND SWAP4 POP DUP1 DUP7 AND DUP5 OR SWAP3 POP POP POP SWAP4 SWAP3 POP POP POP JUMP JUMPDEST PUSH1 0x0 DUP2 SWAP1 POP SWAP2 SWAP1 POP JUMP JUMPDEST PUSH1 0x0 PUSH2 0xA57 PUSH2 0xA52 PUSH2 0xA4D DUP5 PUSH2 0x4EC JUMP JUMPDEST PUSH2 0xA32 JUMP JUMPDEST PUSH2 0x4EC JUMP JUMPDEST SWAP1 POP SWAP2 SWAP1 POP JUMP JUMPDEST PUSH1 0x0 DUP2 SWAP1 POP SWAP2 SWAP1 POP JUMP JUMPDEST PUSH2 0xA71 DUP4 PUSH2 0xA3C JUMP JUMPDEST PUSH2 0xA85 PUSH2 0xA7D DUP3 PUSH2 0xA5E JUMP JUMPDEST DUP5 DUP5 SLOAD PUSH2 0x9E0 JUMP JUMPDEST DUP3 SSTORE POP POP POP POP JUMP JUMPDEST PUSH1 0x0 SWAP1 JUMP JUMPDEST PUSH2 0xA9A PUSH2 0xA8D JUMP JUMPDEST PUSH2 0xAA5 DUP2 DUP5 DUP5 PUSH2 0xA68 JUMP JUMPDEST POP POP POP JUMP JUMPDEST JUMPDEST DUP2 DUP2 LT ISZERO PUSH2 0xAC9 JUMPI PUSH2 0xABE PUSH1 0x0 DUP3 PUSH2 0xA92 JUMP JUMPDEST PUSH1 0x1 DUP2 ADD SWAP1 POP PUSH2 0xAAB JUMP JUMPDEST POP POP JUMP JUMPDEST PUSH1 0x1F DUP3 GT ISZERO PUSH2 0xB0E JUMPI PUSH2 0xADF DUP2 PUSH2 0x9AE JUMP JUMPDEST PUSH2 0xAE8 DUP5 PUSH2 0x9C3 JUMP JUMPDEST DUP2 ADD PUSH1 0x20 DUP6 LT ISZERO PUSH2 0xAF7 JUMPI DUP2 SWAP1 POP JUMPDEST PUSH2 0xB0B PUSH2 0xB03 DUP6 PUSH2 0x9C3 JUMP JUMPDEST DUP4 ADD DUP3 PUSH2 0xAAA JUMP JUMPDEST POP POP JUMPDEST POP POP POP JUMP JUMPDEST PUSH1 0x0 DUP3 DUP3 SHR SWAP1 POP SWAP3 SWAP2 POP POP JUMP JUMPDEST PUSH1 0x0 PUSH2 0xB31 PUSH1 0x0 NOT DUP5 PUSH1 0x8 MUL PUSH2 0xB13 JUMP JUMPDEST NOT DUP1 DUP4 AND SWAP2 POP POP SWAP3 SWAP2 POP POP JUMP JUMPDEST PUSH1 0x0 PUSH2 0xB4A DUP4 DUP4 PUSH2 0xB20 JUMP JUMPDEST SWAP2 POP DUP3 PUSH1 0x2 MUL DUP3 OR SWAP1 POP SWAP3 SWAP2 POP POP JUMP JUMPDEST PUSH2 0xB63 DUP3 PUSH2 0x55E JUMP JUMPDEST PUSH8 0xFFFFFFFFFFFFFFFF DUP2 GT ISZERO PUSH2 0xB7C JUMPI PUSH2 0xB7B PUSH2 0x651 JUMP JUMPDEST JUMPDEST PUSH2 0xB86 DUP3 SLOAD PUSH2 0x97D JUMP JUMPDEST PUSH2 0xB91 DUP3 DUP3 DUP6 PUSH2 0xACD JUMP JUMPDEST PUSH1 0x0 PUSH1 0x20 SWAP1 POP PUSH1 0x1F DUP4 GT PUSH1 0x1 DUP2 EQ PUSH2 0xBC4 JUMPI PUSH1 0x0 DUP5 ISZERO PUSH2 0xBB2 JUMPI DUP3 DUP8 ADD MLOAD SWAP1 POP JUMPDEST PUSH2 0xBBC DUP6 DUP3 PUSH2 0xB3E JUMP JUMPDEST DUP7 SSTORE POP PUSH2 0xC24 JUMP JUMPDEST PUSH1 0x1F NOT DUP5 AND PUSH2 0xBD2 DUP7 PUSH2 0x9AE JUMP JUMPDEST PUSH1 0x0 JUMPDEST DUP3 DUP2 LT ISZERO PUSH2 0xBFA JUMPI DUP5 DUP10 ADD MLOAD DUP3 SSTORE PUSH1 0x1 DUP3 ADD SWAP2 POP PUSH1 0x20 DUP6 ADD SWAP5 POP PUSH1 0x20 DUP2 ADD SWAP1 POP PUSH2 0xBD5 JUMP JUMPDEST DUP7 DUP4 LT ISZERO PUSH2 0xC17 JUMPI DUP5 DUP10 ADD MLOAD PUSH2 0xC13 PUSH1 0x1F DUP10 AND DUP3 PUSH2 0xB20 JUMP JUMPDEST DUP4 SSTORE POP JUMPDEST PUSH1 0x1 PUSH1 0x2 DUP9 MUL ADD DUP9 SSTORE POP POP POP JUMPDEST POP POP POP POP POP POP JUMP JUMPDEST PUSH1 0x0 DUP2 SWAP1 POP SWAP3 SWAP2 POP POP JUMP JUMPDEST PUSH1 0x0 PUSH2 0xC42 DUP3 PUSH2 0x55E JUMP JUMPDEST PUSH2 0xC4C DUP2 DUP6 PUSH2 0xC2C JUMP JUMPDEST SWAP4 POP PUSH2 0xC5C DUP2 DUP6 PUSH1 0x20 DUP7 ADD PUSH2 0x57A JUMP JUMPDEST DUP1 DUP5 ADD SWAP2 POP POP SWAP3 SWAP2 POP POP JUMP JUMPDEST PUSH1 0x0 PUSH2 0xC74 DUP3 DUP5 PUSH2 0xC37 JUMP JUMPDEST SWAP2 POP DUP2 SWAP1 POP SWAP3 SWAP2 POP POP JUMP JUMPDEST PUSH32 0x4E487B7100000000000000000000000000000000000000000000000000000000 PUSH1 0x0 MSTORE PUSH1 0x32 PUSH1 0x4 MSTORE PUSH1 0x24 PUSH1 0x0 REVERT JUMPDEST PUSH1 0x0 DUP2 SLOAD PUSH2 0xCBB DUP2 PUSH2 0x97D JUMP JUMPDEST PUSH2 0xCC5 DUP2 DUP7 PUSH2 0xC2C JUMP JUMPDEST SWAP5 POP PUSH1 0x1 DUP3 AND PUSH1 0x0 DUP2 EQ PUSH2 0xCE0 JUMPI PUSH1 0x1 DUP2 EQ PUSH2 0xCF5 JUMPI PUSH2 0xD28 JUMP JUMPDEST PUSH1 0xFF NOT DUP4 AND DUP7 MSTORE DUP2 ISZERO ISZERO DUP3 MUL DUP7 ADD SWAP4 POP PUSH2 0xD28 JUMP JUMPDEST PUSH2 0xCFE DUP6 PUSH2 0x9AE JUMP JUMPDEST PUSH1 0x0 JUMPDEST DUP4 DUP2 LT ISZERO PUSH2 0xD20 JUMPI DUP2 SLOAD DUP2 DUP10 ADD MSTORE PUSH1 0x1 DUP3 ADD SWAP2 POP PUSH1 0x20 DUP2 ADD SWAP1 POP PUSH2 0xD01 JUMP JUMPDEST DUP4 DUP9 ADD SWAP6 POP POP POP JUMPDEST POP POP POP SWAP3 SWAP2 POP POP JUMP JUMPDEST PUSH1 0x0 PUSH2 0xD3D DUP3 DUP5 PUSH2 0xCAE JUMP JUMPDEST SWAP2 POP DUP2 SWAP1 POP SWAP3 SWAP2 POP POP JUMP JUMPDEST PUSH32 0x4E487B7100000000000000000000000000000000000000000000000000000000 PUSH1 0x0 MSTORE PUSH1 0x11 PUSH1 0x4 MSTORE PUSH1 0x24 PUSH1 0x0 REVERT JUMPDEST PUSH1 0x0 PUSH2 0xD82 DUP3 PUSH2 0x4EC JUMP JUMPDEST SWAP2 POP PUSH32 0xFFFFFFFFFFFFFFFFFFFFFFFFFFFFFFFFFFFFFFFFFFFFFFFFFFFFFFFFFFFFFFFF DUP3 SUB PUSH2 0xDB4 JUMPI PUSH2 0xDB3 PUSH2 0xD48 JUMP JUMPDEST JUMPDEST PUSH1 0x1 DUP3 ADD SWAP1 POP SWAP2 SWAP1 POP JUMP INVALID LOG2 PUSH5 0x6970667358 0x22 SLT KECCAK256 PUSH32 0x89C6E2C1E0BD342A66362030D53AE64D958C36657EB8CC9FA2CF1D12D5578664 PUSH20 0x6F6C634300081000330000000000000000000000 "
				},
				"gasEstimates": {
					"creation": {
						"codeDepositCost": "714600",
						"executionCost": "25013",
						"totalCost": "739613"
					},
					"external": {
						"addNewBook(string,uint256,bool)": "infinite",
						"book(uint256)": "infinite",
						"borrowBookByTitle(string,bool)": "infinite",
						"owner()": "2577",
						"titleToBookState(string)": "infinite",
						"titleToCallNumber(string)": "infinite"
					}
				},
				"methodIdentifiers": {
					"addNewBook(string,uint256,bool)": "4e9e5624",
					"book(uint256)": "1116fd04",
					"borrowBookByTitle(string,bool)": "72c318aa",
					"owner()": "8da5cb5b",
					"titleToBookState(string)": "9993fb75",
					"titleToCallNumber(string)": "4aa875cd"
				}
			},
			"storageLayout": {
				"storage": [
					{
						"astId": 3,
						"contract": "LibraryBase.sol:LibraryBase",
						"label": "owner",
						"offset": 0,
						"slot": "0",
						"type": "t_address"
					},
					{
						"astId": 26,
						"contract": "LibraryBase.sol:LibraryBase",
						"label": "title",
						"offset": 0,
						"slot": "1",
						"type": "t_string_storage"
					},
					{
						"astId": 28,
						"contract": "LibraryBase.sol:LibraryBase",
						"label": "callNumber",
						"offset": 0,
						"slot": "2",
						"type": "t_uint256"
					},
					{
						"astId": 30,
						"contract": "LibraryBase.sol:LibraryBase",
						"label": "bookState",
						"offset": 0,
						"slot": "3",
						"type": "t_bool"
					},
					{
						"astId": 32,
						"contract": "LibraryBase.sol:LibraryBase",
						"label": "i",
						"offset": 0,
						"slot": "4",
						"type": "t_uint256"
					},
					{
						"astId": 43,
						"contract": "LibraryBase.sol:LibraryBase",
						"label": "titleToCallNumber",
						"offset": 0,
						"slot": "5",
						"type": "t_mapping(t_string_memory_ptr,t_uint256)"
					},
					{
						"astId": 47,
						"contract": "LibraryBase.sol:LibraryBase",
						"label": "titleToBookState",
						"offset": 0,
						"slot": "6",
						"type": "t_mapping(t_string_memory_ptr,t_bool)"
					},
					{
						"astId": 51,
						"contract": "LibraryBase.sol:LibraryBase",
						"label": "book",
						"offset": 0,
						"slot": "7",
						"type": "t_array(t_struct(Book)39_storage)dyn_storage"
					}
				],
				"types": {
					"t_address": {
						"encoding": "inplace",
						"label": "address",
						"numberOfBytes": "20"
					},
					"t_array(t_struct(Book)39_storage)dyn_storage": {
						"base": "t_struct(Book)39_storage",
						"encoding": "dynamic_array",
						"label": "struct LibraryBase.Book[]",
						"numberOfBytes": "32"
					},
					"t_bool": {
						"encoding": "inplace",
						"label": "bool",
						"numberOfBytes": "1"
					},
					"t_mapping(t_string_memory_ptr,t_bool)": {
						"encoding": "mapping",
						"key": "t_string_memory_ptr",
						"label": "mapping(string => bool)",
						"numberOfBytes": "32",
						"value": "t_bool"
					},
					"t_mapping(t_string_memory_ptr,t_uint256)": {
						"encoding": "mapping",
						"key": "t_string_memory_ptr",
						"label": "mapping(string => uint256)",
						"numberOfBytes": "32",
						"value": "t_uint256"
					},
					"t_string_memory_ptr": {
						"encoding": "bytes",
						"label": "string",
						"numberOfBytes": "32"
					},
					"t_string_storage": {
						"encoding": "bytes",
						"label": "string",
						"numberOfBytes": "32"
					},
					"t_struct(Book)39_storage": {
						"encoding": "inplace",
						"label": "struct LibraryBase.Book",
						"members": [
							{
								"astId": 34,
								"contract": "LibraryBase.sol:LibraryBase",
								"label": "callNumber",
								"offset": 0,
								"slot": "0",
								"type": "t_uint256"
							},
							{
								"astId": 36,
								"contract": "LibraryBase.sol:LibraryBase",
								"label": "title",
								"offset": 0,
								"slot": "1",
								"type": "t_string_storage"
							},
							{
								"astId": 38,
								"contract": "LibraryBase.sol:LibraryBase",
								"label": "bookState",
								"offset": 0,
								"slot": "2",
								"type": "t_bool"
							}
						],
						"numberOfBytes": "96"
					},
					"t_uint256": {
						"encoding": "inplace",
						"label": "uint256",
						"numberOfBytes": "32"
					}
				}
			},
			"userdoc": {
				"kind": "user",
				"methods": {},
				"version": 1
			}
		}
	}
}